:100000000C940C030C9453030C9453030C9453035F
:100010000C9453030C9453030C9453030C94530308
:100020000C9453030C9453030C942E1E0C94011F38
:100030000C940F150C9453030C9453030C9453031A
:100040000C9453030C9453030C9453030C945303D8
:100050000C9453030C9477150C9453030C94530392
:100060000C9453030C9453030C9453030C945303B8
:100070000C9453030C9453030C9453030C945303A8
:100080000C9453030C9453030C9453030C94530398
:100090000C9453030C9453030C9453030C94530388
:1000A0000C9453030C9453030C94530314001A0040
:1000B0000800150017001C0018000C0012001300A7
:1000C00004611600070009430A000B000D430E00EF
:1000D0000F0028001D621B00060019000541114297
:1000E00010442C002A0029001E001F0020002100BF
:1000F0002200230024002500260027003A003B00B0
:100100003C003D003E003F004000410042004300F3
:100110004500E300E2000100010001000070010061
:100120000100440001000100010001000100010084
:10013000250226020100010001000100010001006A
:100140000100010030003200010001000100010047
:100150000100010001000100300232020100010033
:100160001E021F02200221022202230224022D006D
:100170002E00890001552B008B00010001000100B9
:1001800001008A0052002F00025508550455010055
:10019000010028000100500051004F000100010043
:1001A0000100010001000100010001000100010047
:1001B0000100010001000100010001000100010037
:1001C0004B000100010001000100010001000100DD
:1001D00001004A004E004D00010001000100010035
:1001E0000100010001000100010001000100010007
:1001F00001000100010001000100010001000100F7
:1002000001000100010001000100010001000100E6
:1002100001000100010001000100010001000100D6
:1004600001000100010001000100010012036B0006
:100470006500790062006F00610072006400000096
:10048000160371006D006B006200750069006C005E
:1004900064006500720000000403090409026D0095
:1004A000040100A0FA090400000103010100092170
:1004B000110100012240000705810308000A090418
:1004C00001000103010200092111010001224D0078
:1004D0000705820308000A09040200010300000066
:1004E0000921110100012236000705830308000AD3
:1004F0000904030001030000000921110100012289
:1005000039000705840320000112011001000000DA
:1005100008EDFE606001000102000105010906A16D
:1005200001050719E029E7150025019508750181E6
:1005300002050819012905950575019102950175B6
:100540000391010507190029F71500250195F87594
:10055000018102C005010980A10185021601002662
:1005600003001A81002A8300751095018100C005DF
:100570000C0901A1018503160100269C021A010045
:100580002A9C02751095018100C005010902A10194
:100590000901A10005091901290515002501950585
:1005A0007501810295017503810105010930093149
:1005B0001581257F95027508810609381581257FEB
:1005C000950175088106050C0A38021581257F956D
:1005D0000175088106C0C005010906A101050719BA
:1005E000E029E7150025019508750181029501753F
:1005F00008810105081901290595057501910295E4
:1006000001750391010507190029FF150026FF0058
:10061000950675088100C00011241FBECFEFDAE0F7
:10062000DEBFCDBF04B603FE27C0809118029091B3
:100630001902A0911A02B0911B028730904BA7407B
:10064000B04BD1F4109218021092190210921A02B3
:1006500010921B0214BE84B7877F84BF0FB6F89434
:10066000A89580916000886180936000109260007E
:100670000FBEE0E0F8E3099511E0A0E0B1E0EAE8A0
:10068000F4E402C005900D92A233B107D9F722E03D
:10069000A2E3B1E001C01D92A831B207E1F70E94C8
:1006A0007D1B0C9443220C94000090E080E00895A0
:1006B0000895089581E0089580FF07C0559A5D98D8
:1006C00081FF05C0209A289808955598F8CF209862
:1006D000FACF81E008950C945A030E94740D2FEF15
:1006E00084E39CE0215080409040E1F700C000008E
:1006F0000C949C15FF920F931F93CF93DF938C0163
:10070000FC01C081D18180915D0181113FC0828156
:100710008823B9F1CE010E94DD12F82E682FCE0198
:100720000E948112BE018F2D0E94FF04EC01B801CE
:100730000E946B03882309F44AC0B801CE010E94CD
:100740002F07882309F443C0C531F0E7DF0718F508
:10075000C23080E7D80708F04BC0C115E0E7DE07DC
:1007600089F1C130D047D1F181E080933401809389
:100770003501C801DF91CF911F910F91FF900C942B
:100780006903CE010E94B112F82ECCCFCE010E9497
:10079000DD12BE01C9CFCC3380E7D80709F4ACC065
:1007A000CD33D04709F7F8018281882309F4CBC003
:1007B000109235010E9441159093330180933201CC
:1007C00080E2A7C0F801828181110E946D0380E060
:1007D000DF91CF911F910F91FF900895F8018281D1
:1007E0008823A9F38091D70181608093D701EFCF4F
:1007F000F8018281882309F4BCCF0E9493148111EF
:1008000002C00E9474140E94B01490E090930902F8
:1008100080930802FE01E350F04780910802816056
:10082000E231F105C8F4E95EFB4F0C94F321290491
:10083000350439043D044104450449044D04510480
:10084000550459045D046104650469046D04710470
:1008500075048091080282608093080280910802EA
:100860000E94B4140E94740DB2CF8091080284607B
:10087000F3CF809108028860EFCF809108028061F9
:10088000EBCF809108028062E7CF809108028064FC
:10089000E3CF809108028068DFCF809108028460F6
:1008A000EACF809108028E7FD7CF809108028D7F9A
:1008B000D3CF809108028B7FCFCF80910802877FB2
:1008C000CBCF809108028F7EC7CF809108028F7DA9
:1008D000C3CF809108028F7BBFCF809108028F77B2
:1008E000BBCF809108028B7FEACF90910802892FBD
:1008F00097FB87F98058B0CFF8018281882361F097
:10090000109234010E94411590933301809332017B
:1009100082E00E94DE0A5BCF8091340181110FC01A
:1009200080913201909133010E944D15883C9105D0
:1009300030F486E20E94B30986E20E948F0A82E0C8
:100940000E94E50A44CF8091350181110FC080914A
:100950003201909133010E944D15883C910530F48D
:1009600087E20E94B30987E20E948F0A80E2E8CF03
:100970000C948007259A2D988FEF9FEF9093870016
:100980008093860082E88093800089E180938100D3
:100990000C9432190E94BA040C947E07282F2D98CB
:1009A00080918000211108C08F7780938000109281
:1009B0008900109288000895806880938000233019
:1009C00039F48FEF9FEF909389008093880008950A
:1009D00083E090E0821B9109880F991F2FEF3FEF72
:1009E00002C0369527958A95E2F7309389002093C7
:1009F000880008950C945C030C94FA040895972FD2
:100A000070E026E0929F600D711D1124FB019EE1B4
:100A1000899FE00DF11D1124EE0FFF1FE455FF4FDC
:100A2000859194910895FC01EE0FFF1FE459FB4F4F
:100A30008591949108950E94FF040E94AE0681154D
:100A400020E5920708F040C0811530E4930708F0D4
:100A5000FAC0883E910518F5803E910508F07DC1E9
:100A6000883A910580F4853A910508F087C0813075
:100A7000910509F472C120F08430910508F06DC130
:100A800090E080E008958D3B910508F482C0803CA1
:100A90009105B0F3805C91090E94130508958115BA
:100AA00040E2940750F4811521E0920708F055C107
:100AB000803F910528F390650895811530E39307F1
:100AC00008F0BEC09F70E8CF811545E5940760F53A
:100AD000811524E5920708F0E5C0811532E59307FA
:100AE00050F4811541E5940708F4B0C0982F882789
:100AF000816F906A0895282F26952695AC01437042
:100B000055278115934508F0BEC081E090E002C0F2
:100B1000880F991F4A95E2F740E2249F9001112423
:100B2000822B932B9C680895803340E7940798F4B8
:100B3000803220E7920708F0BFC0811536E59307A1
:100B400008F4B5C09C0130569F702115304108F063
:100B500097CF90620895813320E7920709F4B3C0DC
:100B600008F4AEC0823340E7940709F4AFC0833382
:100B7000904709F085CF80E093ED0895853A91057F
:100B800009F4A7C0863A910509F0A6C082E890E46E
:100B90000895883A910509F4A2C0893A910509F4AB
:100BA000A1C08A3A910509F4A0C08B3A910509F4D5
:100BB0009FC08C3A910509F49EC08B3B910509F4C6
:100BC0009DC08C3B910509F49CC08D3A910509F4B8
:100BD0009BC0803B910509F49AC08E3A910509F4B7
:100BE00099C08F3A910509F498C0813B910509F4A9
:100BF00097C0823B910509F496C0833B910509F4A7
:100C000095C0843B910509F494C0853B910509F496
:100C100093C0863B910509F492C0873B910509F486
:100C200091C0883B910509F490C0893B910509F476
:100C30008FC08A3B910509F48EC080E094E408954A
:100C40009927906C08959F70906A08959C0154E0D4
:100C5000369527955A95E1F7922F9370482F437058
:100C600021E030E002C0220F331F4A95E2F73C68D2
:100C7000392B86958695837040E2849FC0011124AC
:100C8000822B932B089581E090E002C0880F991F7A
:100C90004A95E2F740E2249F90011124822B932B86
:100CA0009A680895982F8827846F906A0895982FDE
:100CB000882788279F714DCF80529047946D089563
:100CC00080E091ED089580E090ED089580E092ED50
:100CD000089581E890E4089583E890E4089582EE11
:100CE00094E4089589EE94E408958AEE94E40895D6
:100CF00085EB94E4089586EB94E4089583EB94E403
:100D0000089584EB94E4089587EB94E408958CECC3
:100D100094E408958DEC94E4089583E895E40895AF
:100D20008AE895E4089582E995E4089584E995E4D4
:100D3000089581E296E4089583E296E4089584E2BA
:100D400096E4089585E296E4089586E296E408958F
:100D500087E296E408958AE296E408958238910540
:100D600049F1B0F48133910509F45CC048F489324B
:100D7000910509F452C08A32910509F458C00895CA
:100D80008533910509F444C08933910599F008959C
:100D9000833E910531F138F4803E910591F0823E19
:100DA0009105B1F00895863E910511F1873E9105B8
:100DB00041F10895209108022370C9F080EE90E07F
:100DC00008952091080220FF12C089E390E0089561
:100DD0002091080222FF0BC024FF2EC090E080E08B
:100DE00008952091080222FD2AC024FDF7CF08951E
:100DF0002091080223FFFBCF24FDF0CF87EE90E087
:100E000008952091080223FFF0CF86EE90E0089528
:100E10002091080225FD16C008952091080225FDA5
:100E200014C008952091080226FD12C00895209153
:100E3000080226FD10C0089583EE90E0089582EE2A
:100E400090E0089589E290E0089585E390E00895A8
:100E50008AE290E0089581E390E0C9CF08950F936E
:100E60001F93CF938C01FB018281811106C0C1E0E9
:100E70008C2FCF911F910F910895C0914301C11103
:100E800025C00531104799F70E942E0781E0809315
:100E900043010E94411590934201809341011092B9
:100EA0003601109238011092370110923A011092D7
:100EB000390110923C0110923B0110923E011092B8
:100EC0003D011092400110923F01D2CF809141012B
:100ED000909142010E944D15883C910540F6809109
:100EE0003601E82FF0E0EE0FFF1FE95CFE4F1183A3
:100EF00000838F5F80933601C0E0BACF0C94580313
:100F00000C945903CF93DF9385B7806885BF85B76D
:100F1000806885BFA9E1B1E04EE151E0C1E0D0E0D9
:100F20008D91E82FE295EF70F0E061A18F709E0146
:100F300001C0220F8A95EAF7922F9095962391A3EC
:100F400082A1822B82A34A175B0751F7A3E1B1E08C
:100F500061E070E08D91E82FE295EF70F0E041A143
:100F60008F709B0101C0220F8A95EAF7922F90950E
:100F7000942391A382A1822B82A381E0A931B80797
:100F800049F7109249011092440110924A011092BF
:100F9000450110924B011092460110924C011092A3
:100FA000470110924D0110924801DF91CF910C94AE
:100FB000CA046F927F929F92AF92BF92CF92DF92BC
:100FC000EF92FF920F931F93CF93DF93C4E4D1E08E
:100FD00009E111E0EE24E394F12CDD24D39478812F
:100FE0001882D8018D918D01E82FE295EF70F0E025
:100FF00091A18F70A70101C0440F8A95EAF7892F4C
:10100000842B81A382A1942E9094892182A3B0EA9B
:10101000BA95F1F733E1632E31E0732E90E080E072
:10102000D3013D913D01A32EA2942FE0A222B12C29
:10103000D5019096CC9068813F70D70102C0AA0F6D
:10104000BB1F3A95E2F79D012C2109F056C02E2DC9
:10105000082E01C0220F0A94EAF7262B2883019656
:1010600086309105E9F681A1892181A382A1842B93
:1010700082A38881781741F0D0924E010E944115D9
:101080009093500180934F012196B1E00E311B07E0
:1010900009F0A5CF80914E018823F1F080914F0196
:1010A000909150010E944D150697B0F08091440137
:1010B000809349018091450180934A0180914601C6
:1010C00080934B018091470180934C0180914801AE
:1010D00080934D0110924E010E94B80481E0DF918F
:1010E000CF911F910F91FF90EF90DF90CF90BF9025
:1010F000AF909F907F906F90089520E0AECFE82F43
:10110000F0E0E75BFE4F80810895089590935601CB
:10111000809355010895E0915501F0915601309763
:1011200021F00190F081E02D099480E00895E09194
:101130005501F0915601309721F00280F381E02DA6
:1011400009940895E0915501F0915601309721F0EE
:101150000480F581E02D0994089520915301309188
:1011600054012817390771F090935401809353016B
:10117000E0915501F0915601309721F00680F781FA
:10118000E02D0994089520915101309152012817C2
:10119000390771F09093520180935101E09155010C
:1011A000F0915601309721F00084F185E02D0994EB
:1011B000089508950C94D9080E9438150E9482075A
:1011C0000E9401160C943219BF92CF92DF92EF92D7
:1011D000FF920F931F93CF93DF93CDB7DEB72A977C
:1011E0000FB6F894DEBF0FBECDBF0E94D90788E5C9
:1011F000C82E81E0D82E10E000E0B02E802F0E9493
:101200007F08E82EF601F1906F01F81609F45AC034
:101210008091D70181FD0E94850890E080E0FE2446
:101220002F2D30E0482FB901082E02C07595679523
:101230000A94E2F760FF41C08E83BF8281E090E0B4
:101240006C0102C0CC0CDD1C4A95E2F72E2D30E07B
:101250002C213D21232B09F480E088870E94411531
:101260008160782F9A8789874E815F8168858A851A
:101270000E948909F801E85AFE4F80818C258083FD
:101280000E9484180E948B0890915701891789F158
:101290000E948B08809357012A960FB6F894DEBF00
:1012A0000FBECDBFDF91CF911F910F91FF90EF90B7
:1012B000DF90CF90BF900C94FC040196863091058E
:1012C00009F0B0CF0F5F1F4F0530110509F095CF22
:1012D0008FEF89838A831B820E9441158160782F5A
:1012E0009D838C8349815A816B818D810E948909FC
:1012F000C7CF2A960FB6F894DEBF0FBECDBFDF91E1
:10130000CF911F910F91FF90EF90DF90CF90BF9002
:101310000895CF93DF93CDB7DEB72B970FB6F89430
:10132000DEBF0FBECDBF4F83588769877A878B8713
:101330001E821D8285E0FE013796DE011196019026
:101340000D928A95E1F749815A816B817C818D816B
:101350009E812B960FB6F894DEBF0FBECDBFDF91F6
:10136000CF910C942610882309F4D8C0823871F4E8
:101370000E948B0881FDD2C089E30E947D130E94E8
:10138000451489E30E94BA130C944514833859F428
:101390000E948B0880FDC2C083E50E947D130E94DD
:1013A000451483E5EFCF843859F40E948B0882FD01
:1013B000B5C087E40E947D130E94451487E4E2CF04
:1013C0009CEF980F913A18F40E947D13DDCF90E2C4
:1013D000980F983050F4877091E001C0990F8A956A
:1013E000EAF7892F0E94FC13CFCF9BE5980F93302B
:1013F00070F4853A31F0863A39F083E890E00C9445
:10140000AD0881E890E0FBCF82E890E0F8CF98E566
:10141000980F953108F082C0883A09F440C0893AA3
:1014200009F440C08A3A09F440C08B3A09F440C03C
:101430008C3A09F440C08B3B09F440C08C3B09F462
:1014400040C08D3A09F440C0803B09F440C08E3A58
:1014500009F440C08F3A09F440C0813B09F440C010
:10146000823B09F440C0833B09F440C0843B09F44B
:1014700040C0853B09F440C0863B09F440C0873B2F
:1014800009F440C0883B09F440C0893B09F440C0DE
:101490008A3B09F440C090E080E00C94C30882EEDF
:1014A00090E0FBCF89EE90E0F8CF8AEE90E0F5CFA8
:1014B00085EB90E0F2CF86EB90E0EFCF83EB90E00E
:1014C000ECCF84EB90E0E9CF87EB90E0E6CF8CECBB
:1014D00090E0E3CF8DEC90E0E0CF83E891E0DDCFCA
:1014E0008AE891E0DACF82E991E0D7CF84E991E010
:1014F000D4CF81E292E0D1CF83E292E0CECF84E2FA
:1015000092E0CBCF85E292E0C8CF86E292E0C5CFF1
:1015100087E292E0C2CF8AE292E0BFCF08958823AB
:1015200009F44BC0823871F40E948B0881FF45C0DA
:1015300089E30E947D130E94451489E30E94BA1337
:101540000C944514833859F40E948B0880FF35C0F1
:1015500083E50E947D130E94451483E5EFCF843814
:1015600059F40E948B0882FF28C087E40E947D13F3
:101570000E94451487E4E2CF9CEF980F913AF0F275
:1015800090E2980F983050F4877091E001C0990F65
:101590008A95EAF7892F0E940214D2CF9BE5980F13
:1015A000933020F490E080E00C94AD08885A8531A7
:1015B00020F490E080E00C94C3080895882321F083
:1015C0000E94FC130C9445140895882321F00E9476
:1015D00002140C94451408958F929F92AF92BF927B
:1015E000DF92EF92FF920F931F93CF93DF937C01D3
:1015F000D62FC72FFC01058102950F7012811111A2
:101600000E941B140E947613D82E882371F0112398
:1016100021F180E28D0F883000F182E00E9460139A
:101620000E94761391E0D82ED926EC2FE295EF7028
:10163000F0E0E35EF44F0C94F3212F0B2F0B7F0BA4
:101640007F0BC10BDD0B5C0B5C0BE80B5C0B800CA8
:10165000800CF30CFC0C5C0B1C0DD12CE6CF0C2F7A
:101660000F70C07F11F00295007F1123A9F00023B5
:1016700059F080E28D0F883010F0D11109C0802F11
:101680000E94FC130E9445148D2F0E94B30914C0C0
:10169000802F0E940D14F6CF8D2F0E948F0A0023F9
:1016A00059F080E28D0F883010F0D11124C0802FC6
:1016B0000E9402140E944514DD2009F4C4C10E9456
:1016C000531380FDC0C1F70112820E944D130E9486
:1016D000C511C7010E942F0D0E944D13DF91CF91BC
:1016E0001F910F91FF90EF90DF90BF90AF909F9070
:1016F0008F900C94E611802F0E941314DBCFFC2FE7
:10170000FF70BF2EC07FC03219F0B29480EFB822B4
:10171000DD2369F0D13029F1112369F1002359F05B
:10172000F701858180FFB0CF8F70858304C01123BE
:1017300061F0011104C08B2D0E94DE0ABDCF8B2DFC
:101740000130D1F70E942F14B7CF011106C00E94BB
:1017500032148B2D0E94E50AAFCF013009F4ACCFD3
:10176000F6CF112321F0063008F0A6CFE4CF0530E4
:1017700008F0A2CFEECF002361F38D2F0E948F0AD5
:101780009BCF8C2F86958695837069F0813009F008
:1017900093CF8D2F9C2F9370111102C090E080E0A9
:1017A0000E94C30889CF8D2F9C2F9370111102C006
:1017B00090E080E00E94AD087FCF8D2F112329F0AB
:1017C0000E948D170E94791877CF0E94F517FACFE3
:1017D0008C2F837009F047C011116ECF2D2F2295E9
:1017E00026952770220F220F6D2F6F70862E912C59
:1017F000B12CA12C022E04C0880C991CAA1CBB1C65
:101800000A94D2F760E070E0CB01D4FF0FC06FE024
:1018100070E080E090E004C0660F771F881F991F7A
:101820002A95D2F76095709580959095C695C69546
:10183000C370C23051F080F4682979298A299B2924
:10184000C13071F00E946E1137CF682979298A2939
:101850009B290E948A1130CF0E946E11C501B401EC
:101860000E94521129CF8695112311F08C2F81707F
:10187000882309F421CF2D2F229526952770220F3A
:10188000220F6D2F6F70862E912CB12CA12C022E61
:1018900004C0880C991CAA1CBB1C0A94D2F760E0F7
:1018A00070E0CB01D4FF0FC06FE070E080E090E00B
:1018B00004C0660F771F881F991F2A95D2F760957D
:1018C000709580959095C695C695C370C23051F0BD
:1018D00080F4682979298A299B29C13071F00E94F6
:1018E0004812EACE682979298A299B290E94641224
:1018F000E3CE0E944812C501B4010E942C12DCCE36
:10190000E0E2ED0FE53108F062C0F0E0E657F34F9A
:101910000C94F3219F0C9F0C9F0C9F0C9F0C9F0C11
:101920009F0C9F0C9F0C9F0C9F0C9F0C9F0C9F0C5F
:101930009F0C9F0CAC0CBA0CC10CC80CD20CDF7005
:101940008C2F8F71112321F00E94C5118D2FF4CEA1
:101950000E94E6118D2FFECE112341F0053008F0D4
:10196000ABCE8C2F8F710E940B12A6CE063008F0E2
:10197000A3CEF7CF8C2F8F71112339F00E94C511A0
:101980009BCE8C2F8F711123C9F30E94E61194CE48
:10199000112329F08C2F8F710E94B0118DCE0E94DF
:1019A000A6118ACE112349F0CF718C2F0E94C51148
:1019B00063E08C2F0E9457137FCE81E00E9460135A
:1019C000023008F479CE82E00E94601375CE1123B4
:1019D00029F0011159CE8C2F8F71D0CF0111CDCEAE
:1019E0008C2F8F71D2CF4C2F4F706D2FC7010E945B
:1019F00055030E94CF1060CE11115ECECF70C23061
:101A0000A9F040F4CC2379F0C13009F055CE0E9402
:101A10005B1952CEC33069F0C43009F04DCE8D2F22
:101A20000E94AA1949CE0E94431946CE0E947419F9
:101A300043CE0E94871940CE4C2F4F706D2FC701A7
:101A40000E94FE0439CEDF91CF911F910F91FF903C
:101A5000EF90DF90BF90AF909F908F9008950F937D
:101A60001F93CF93DF93EC01988189812B813C8177
:101A7000232B39F08F3F19F481E09F3F19F080E06C
:101A800001C081E080FD17C0CE010E947A03882347
:101A900091F0688179818A810E9429138C010E94CA
:101AA00080120E944711B801CE01DF91CF911F91A2
:101AB0000F910C94EC0ADF91CF911F910F91089533
:101AC0000E941B140E942C140E94EE130E944514C5
:101AD0000E9426190E94791890E080E00E94AD08CB
:101AE00090E080E00C94C3080E940A140C94600DEE
:101AF0000E941F13E92FE295EF70E250EE30E0F400
:101B0000F0E0EB57F24F0C94F321930D930D9C0DE5
:101B10009C0D9E0D9C0D9C0D9C0D930D930DA30D86
:101B20009C0D9C0DA30D803F19F020F4803E20F405
:101B300081E00895843FE1F380E00895803EC0F3A2
:101B4000813FD1F7F5CF93FB882780F90895CF9394
:101B5000DF9300D000D01F92CDB7DEB70F900F906B
:101B60000F900F900F90DF91CF910895CF93DF9357
:101B700000D000D000D0CDB7DEB726960FB6F894CF
:101B8000DEBF0FBECDBFDF91CF9108951F93CF93DE
:101B9000DF93C0915E0116E080915F018C1304C059
:101BA000DF91CF911F910895D0E01C9FF0011D9F00
:101BB000F00D1124E05AFE4F408151816281738102
:101BC000848195810E94B60D2196C770E5CF409122
:101BD00090015091910160919201709193018091D7
:101BE0009401909195010C94B60D1F93CF93DF93C0
:101BF00080919501807FD1F4809192018823B1F08A
:101C000080915E01D0915F01B0919001C0919101EE
:101C10004091930150919401A1E0BF3F09F0A0E0F1
:101C2000BA016095709516E0D81304C0DF91CF918A
:101C30001F91089521E04115510521F02A2FCF3F32
:101C400009F020E090E020FD38C0189FF001199FB6
:101C5000F00D1124E05AFE4F21812C132EC020815B
:101C60002B132BC02281211128C0238134812417FA
:101C7000350700F1241B350B283C3105F0F4209189
:101C800095012F7020612093950126E0289FF00197
:101C9000299FF00D1124EB59FE4F80818F708061D8
:101CA000808380E991E00E942F0DDF91CF911F91F9
:101CB0000C94C60D260F371FDFCF01968770B4CF67
:101CC000AF92BF92CF92DF92EF92FF920F931F934A
:101CD000CF93DF93CDB7DEB761970FB6F894DEBF31
:101CE0000FBECDBF8C0185E0F801DE011D9601908D
:101CF0000D928A95E1F7D8014C9111965C9111975C
:101D00001296EC9030919001609191018091930135
:101D10009091940121E0009731F06F3F19F421E098
:101D20003F3F09F020E0B22FB170BB2E20FD80C1F3
:101D3000F801C380D480A0909201AA2009F427C1A1
:101D4000C816D906D0F1D601A81BB90BCD01FF24C6
:101D5000F394883C910508F0F12C80919501982F1F
:101D6000907FFF2009F4CAC0911187C0FE2C651333
:101D700029C0341327C0E11025C08F708061809383
:101D800095010E94E70D80E991E00E942F0D80915E
:101D90009501F80185838F2D61960FB6F894DEBF0B
:101DA0000FBECDBFDF91CF911F910F91FF90EF90AC
:101DB000DF90CF90BF90AF900895809590958C0D57
:101DC0009D1DC5CF81E0CD2831F05F3F19F481E042
:101DD0004F3F09F080E080FD24C081E08E25F82F80
:101DE000F170DF2E80FF3FC080915E0120915F0186
:101DF00036E0821318C04D875E878D859E850E94D0
:101E00001F13292F22952F70223008F1243030F52E
:101E10009F7009F1D80115969C91907FE1F4FB2CFD
:101E2000BACF80E0DCCF90E0389FF001399FF00D11
:101E30001124E05AFE4F6181561306C0608146139B
:101E400003C062816E110FC001968770D2CF9F7060
:101E500011F0882321F3805E883008F3C8010E94C6
:101E60002F0DBD2CDCCFEE2009F495CF809195018C
:101E7000816080939501F12C8ECF651312C03413CD
:101E800010C0E1100EC0F8018583C8010E942F0D1B
:101E900086E0F801A0E9B1E001900D928A95E1F7A2
:101EA00041C04D875E878D859E850E94780D882371
:101EB00009F4C8C0EE2009F4C5C0809195018032B4
:101EC00070F0209190013091910138872F8319860D
:101ED000DB86CA868C87CE0107960E942F0D86E08E
:101EE000F801A0E9B1E001900D928A95E1F70E9416
:101EF000F50D0E94E70DFF24F3944DCF911115C00D
:101F00007C2DD98AC88A6E2D89890E94A70D80E907
:101F100091E00E942F0D86E0E0E9F1E0DF011D92E3
:101F20008A95E9F70E94E70D36CF651312C0341386
:101F300010C0E1100EC0F8018583C8010E942F0D6A
:101F4000E0E9F1E086E0DF011D928A95E9F7FA2CDD
:101F500022CF4D875E878D859E850E94780D8823D0
:101F600009F470C0EE2009F46DC0809195018032B3
:101F700008F4B5CF20919001309191013A832983E3
:101F80001B82DD82CC828E83CE010196A6CFC8163D
:101F9000D90638F1F601E81BF90BCF01F12C883C8A
:101FA000910508F03DC0FE2CEE2009F44BC06513EE
:101FB00026C0341324C08091950180FD17C0982F4E
:101FC000907FA1F0D80115968C931597903F09F456
:101FD0005CCF982F907F905F8F70892B15968C9394
:101FE00054CF809590958C0D9D1DD8CF86E0F8013B
:101FF000A0E9B1E001900D928A95E1F7CCCE4D8732
:102000005E878D859E850E94780D811168CF8091B5
:102010009501816080939501C8010E942F0DBBCE70
:102020007C2DD98AC88A6E2D89890E94A70D73CF0D
:10203000EE2041F04D875E878D859E850E94780D4C
:1020400081114DCFC8010E942F0D55CF1F93CF9303
:10205000DF93CDB7DEB72C970FB6F894DEBF0FBE77
:10206000CDBF4F83588769877A878B879C87CE013E
:1020700007960E94600E882309F442C09F818885DC
:102080002A853B85232B39F08F3F19F481E09F3F50
:1020900019F080E001C081E080FD08C04F815885C3
:1020A00069857A858B859C850E94B60D16E08091A6
:1020B0005E0190915F01891709F467C0819FC0019B
:1020C0001124805A9E4F0E94600E882309F45DC03F
:1020D000E0915E011E9FF0011124E05AFE4F408105
:1020E000518162817381848195810E94B60D8091B6
:1020F0005E0190E001968770992780935E01D7CFAB
:1021000086E0FE013796DE01119601900D928A95C8
:10211000E1F79F8188852A853B85232B39F08F3F06
:1021200019F481E09F3F19F080E001C081E080FD5B
:10213000BDCF20915F0130E0C901019687709927DA
:1021400040915E014817190699F096E0929FD001E0
:10215000939FB00D1124A05ABE4FFE0131960190FD
:102160000D929A95E1F780935F010E94C60D9ECF74
:102170000E94740D10925F0110925E0186E0E0E90A
:10218000F1E0DF011D928A95E9F72C960FB6F894DD
:10219000DEBF0FBECDBFDF91CF911F910895EF92AB
:1021A000FF920F931F93CF93DF938C01892B81F0C4
:1021B000F12CEE24E394E8012196F8018491843710
:1021C00070F4843008F05FC08130B1F08230A1F14A
:1021D000DF91CF911F910F91FF90EF900895853778
:1021E00009F44CC008F43DC09CE7980F903780F785
:1021F0008F770E948F0A49C00E5F1F4FFE018491A6
:1022000090E2980F983060F48770FE2D01C0FF0FA8
:102210008A95EAF78F2F0E941E140E94451402C06F
:102220000E94B3098F2D815030F2EFE9FFE0319722
:10223000F1F700C00000F7CF0E5F1F4FFE01849141
:1022400090E2980F983050F48770FE2D01C0FF0F78
:102250008A95EAF78F2F0E942414DFCF0E948F0AFD
:10226000E1CF0E5F1F4FFE01C491C150D8F28FE93C
:102270009FE00197F1F700C00000F7CF0E5F1F4FFE
:10228000FE01F490CFCF0E94B3098E01CBCF089509
:102290006093AE017093AF018093B0019093B10150
:1022A0000C94600D0F931F930091AE011091AF013C
:1022B0002091B0013091B101DC01CB01802B912B39
:1022C000A22BB32B8093AE019093AF01A093B001EA
:1022D000B093B1011F910F910C94600D0F931F9358
:1022E0000091AE011091AF012091B0013091B10188
:1022F000DC01CB0180239123A223B3238093AE0181
:102300009093AF01A093B001B093B1011F910F91D1
:102310000C94600D0F931F930091AE011091AF01CB
:102320002091B0013091B101DC01CB0180279127D0
:10233000A227B3278093AE019093AF01A093B00181
:10234000B093B1011F910F910C94600D1092AA01EE
:102350001092AB011092AC011092AD010C94600D83
:1023600041E050E060E070E004C0440F551F661F7C
:10237000771F8A95D2F74093AA015093AB016093DF
:10238000AC017093AD010C94600D41E050E060E051
:1023900070E004C0440F551F661F771F8A95D2F75F
:1023A0008091AA019091AB01A091AC01B091AD01D7
:1023B000842B952BA62BB72B8093AA019093AB016E
:1023C000A093AC01B093AD010C94600D41E050E0DE
:1023D00060E070E004C0440F551F661F771F8A95A8
:1023E000D2F740955095609570958091AA01909193
:1023F000AB01A091AC01B091AD0184239523A6233C
:10240000B7238093AA019093AB01A093AC01B09342
:10241000AD010C94600D41E050E060E070E004C05C
:10242000440F551F661F771F8A95D2F78091AA0126
:102430009091AB01A091AC01B091AD01842795279B
:10244000A627B7278093AA019093AB01A093AC0174
:10245000B093AD010C94600D0F931F930091AA01EE
:102460001091AB012091AC013091AD01DC01CB01A9
:10247000802B912BA22BB32B8093AA019093AB01BD
:10248000A093AC01B093AD011F910F910C94600D1E
:102490000F931F930091AA011091AB012091AC0101
:1024A0003091AD01DC01CB0180239123A223B32322
:1024B0008093AA019093AB01A093AC01B093AD01BE
:1024C0001F910F910C94600D0F931F930091AA011F
:1024D0001091AB012091AC013091AD01DC01CB0139
:1024E00080279127A227B3278093AA019093AB015D
:1024F000A093AC01B093AD011F910F910C94600DAE
:102500000895292F220F920F990F890F982F9770F6
:1025100071E001C0770F9A95EAF7869586958695C2
:1025200025E0829FC001112450E040E0A62FB0E0DA
:10253000FC01E40FF51FEA56FE4F60819D01042E59
:1025400002C0369527950A94E2F721702195262737
:102550002723262720834F5F5F4F4530510541F7E2
:102560000895292F220F290F220F820F982F97707D
:1025700086958695869545E0849F9001112470E0AC
:1025800060E080E0F901E60FF71FEA56FE4F408158
:1025900050E0092E02C0569547950A94E2F7417023
:1025A0005527062E01C0440F0A94EAF7842B6F5F6B
:1025B0007F4F6530710531F70895BF92CF92DF925A
:1025C000EF92FF920F931F93CF93DF938C01C090F4
:1025D000AA01D090AB01E090AC01F090AD018091E8
:1025E000AE019091AF01A091B001B091B101C82AA4
:1025F000D92AEA2AFB2ACFE1D0E0BC2ED701C601B6
:102600000C2E04C0B695A795979587950A94D2F796
:1026100080FD0EC0219788F7B12C8B2DDF91CF91D3
:102620001F910F91FF90EF90DF90CF90BF90089592
:10263000B8018C2F0E941B05019761F3EECFCF9359
:10264000DF93EC010E94DD12BE01DF91CF910C946B
:102650001B051F93CF93DF93EB0190915D019923AD
:1026600031F0CB01DF91CF911F910C941F13882380
:1026700079F0CB010E94DD12182F682FCE010E9445
:102680008112BE01812FDF91CF911F910C941B0508
:10269000CB010E94B112182FF4CF8091B201859521
:1026A0008595859508958091B2018770089598E089
:1026B000899F90011124622B6093B2010C94C51183
:1026C0009091B201809589238093B201282F2770C1
:1026D00061F4282F082E000C330B9217130629F0F3
:1026E0008595859585950C94E61108959091B20194
:1026F000977081E009F480E0089590911201992388
:10270000E1F09091080297FF18C0E82FE695E69552
:10271000E695EF3139F12091000130910101E20F8E
:10272000F32FF11D877021E030E001C0220F8A9560
:10273000EAF78181822B81830895209100013091F5
:102740000101F90132969FEF40E05191851751F058
:102750009F3F19F4511101C0942F4F5F4E31A9F7DB
:102760009F3F09F40895290F311D97FD3A95F9010E
:1027700082830895909112019923F1F090910802BB
:1027800097FF1AC0E82FE695E695E695EF3129F117
:102790002091000130910101E20FF32FF11D282F4C
:1027A000277081E090E001C0880F2A95EAF78095B4
:1027B0009181892381830895209100013091010145
:1027C000F9013296205E3F4F9191891303C0DF01DA
:1027D00011971C92E217F307B9F7089581E090E092
:1027E000E0910001F0910101E80FF91F10820196BC
:1027F00080329105A9F708959091D601892B809395
:10280000D6010895982F90958091D60189238093C1
:10281000D60108951092D60108959091D501892B83
:102820008093D5010895982F90958091D5018923A3
:102830008093D50108951092D50108959091D40107
:10284000892B8093D4010895982F90958091D4017D
:1028500089238093D40108951092D4010895809320
:10286000B30108951092B3010895209100013091B1
:102870000101F9013196205E3F4F80E09191911165
:102880008F5FE217F307D1F70895E0910001F0910F
:1028900001018091D6018083E0910001F091010156
:1028A00080819091D501892B8083E0910001F09186
:1028B000010180819091D401892B80839091B30193
:1028C000992361F0E0910001F09101018081892B51
:1028D00080830E94351481111092B3018091000110
:1028E000909101010C9497086DEE7EEF90E080E0EE
:1028F0000E942D2260E082E090E00E941B2260E0B6
:1029000083E090E00E941B2260E084E090E00E945F
:102910001B2260E085E090E00E941B2260E086E0E0
:1029200090E00C941B2290E080E00E94152221E0B0
:102930008D3E9E4F09F020E0822F089582E090E0C6
:102940000C940D22682F82E090E00C941B2283E00F
:1029500090E00C940D22682F83E090E00C941B22F1
:1029600084E090E00C940D22682F84E090E00C94B9
:102970001B2286E090E00C940D22682F86E090E008
:102980000C941B2280910F02843051F11092D801D7
:1029900088E190E020E40FB6F894A8958093600059
:1029A0000FBE2093600080E00E94CE0480E00E9471
:1029B000FC0483B7817F846083BF83B7816083BF5A
:1029C0007894889583B78E7F83BF0FB6F894A895C7
:1029D00080916000886180936000109260000FBE5B
:1029E000089508950895CF930E94F1140E94D90785
:1029F0000E94F214C0E08C2F0E947F08811105C054
:102A0000CF5FC530C1F7CF91089581E0FCCF0E9420
:102A1000740D0E9432190E948B080C94FC041F92C2
:102A20000F920FB60F9211248F939F93AF93BF9382
:102A30008091D801811113C0809104029091050208
:102A4000A0910602B09107024196A11DB11D80938D
:102A5000040290930502A0930602B0930702BF916F
:102A6000AF919F918F910F900FBE0F901F9018956F
:102A700082E084BD93E095BD9AEF97BD80936E0090
:102A800008952FB7F8948091040290910502A091C7
:102A90000602B09107022FBF0895CF92DF92EF9206
:102AA000FF920F931F932FB7F89440910402509117
:102AB000050260910602709107022FBF6A017B0137
:102AC000EE24FF248C0130E020E0C016D106E2069F
:102AD000F30650F0481B590BCA011F910F91FF904C
:102AE000EF90DF90CF90089541505109F3CF1F929E
:102AF0000F920FB60F9211248F939F93AF93BF93B2
:102B00008091040290910502A0910602B091070203
:102B10000196A11DB11D8093040290930502A0931C
:102B20000602B0930702BF91AF919F918F910F90D2
:102B30000FBE0F901F9018950E94B31DF8942FEFB1
:102B400087EA91E6215080409040E1F700C0000004
:102B500087E090EBDC018093180290931902A09318
:102B60001A02B0931B0288E19CE00FB6F894A89576
:102B7000809360000FBE90936000FFCFCF92DF92F2
:102B8000EF92FF920F931F93CF93C0E0E82EF12CAA
:102B90008C2F0E947F0810E000E0C82ED12CC601C7
:102BA000002E02C0959587950A94E2F780FD11C02A
:102BB0000F5F1F4F0630110591F7CF5FC53041F70A
:102BC00080E0CF911F910F91FF90EF90DF90CF9019
:102BD0000895602F7C2F80E00E94FF04E816F9061C
:102BE00039F781E0EECFCF93C82F8CE20E94BE155B
:102BF000882321F08C2FCF910C94BE1580E0CF91CB
:102C00000895CF930E949314811102C00E947414FE
:102C1000C5E608C00E94D9078FE39CE90197F1F748
:102C200000C00000C150B1F789E20E94F315811184
:102C3000EFC08AE20E94F31581110E94741485E0AE
:102C40000E94F31581110E949C150E949E1480938E
:102C5000D70187E00E94F315882371F08BE10E9471
:102C6000F315882309F4B1C09091D701892F8D7F86
:102C700091FF82608093D7018091D7010E94A214B6
:102C80000E94B01490E0909309028093080280EEB5
:102C90000E94F315882341F090910802892F8E7FBE
:102CA00090FF81608093080289E30E94F3158823D6
:102CB00041F090910802892F8D7F91FF826080936F
:102CC000080282EE0E94F315882341F090910802D9
:102CD000892F8B7F92FF84608093080286EE0E948A
:102CE000F315882341F090910802892F877F93FF85
:102CF00088608093080283EE0E94F315882341F0D8
:102D000090910802892F8F7E94FF80618093080242
:102D100085E30E94F315882341F090910802892FE2
:102D20008F7D95FF80628093080281E30E94F315F6
:102D3000882341F090910802892F8F7B96FF806451
:102D40008093080281E10E94F315882341F090915D
:102D50000802892F97FB87F9805880930802809199
:102D600008020E94B41487E20E94F315C82F8EE176
:102D70000E94F3158111C2608FE10E94F315811149
:102D8000C46080E20E94F3158111C86081E20E9454
:102D9000F3158111C06182E20E94F3158111C062B6
:102DA00083E20E94F3158111C06484E20E94F3154E
:102DB000882341F1C0688C2F0E94AB146C2F70E007
:102DC00090E080E0CF910C9448118EE00E94F315C2
:102DD000882339F09091D701892F8B7F92FF8460EF
:102DE00049CF80E10E94F3159091D701882329F003
:102DF000892F877F93FF88603DCF892F8E7F90FF3B
:102E0000816038CFC111D7CF0E94A714682FD7CFC8
:102E1000CF9108958091DB0180FF12C06091050180
:102E200085E0689FB0011124759567957595679544
:102E300060387105A8F561157105A1F1862F089517
:102E400081FF09C06091050185E0689FB0011124F0
:102E500075956795EDCF82FF07C06091050185E00C
:102E6000689FB0011124E4CF2091DC012223A9F056
:102E7000909104016091050185E0689FB0011124E3
:102E80002917B0F6269FA001279F500D1124692F06
:102E900070E0CA010E94DF21CBCF65E070E0CECFA9
:102EA0008FE7089581E008958091DB0180FF0CC0D9
:102EB0006091030170E0759567957595679561154B
:102EC000710549F1862F089581FF06C060910301C5
:102ED00070E075956795F3CF6091030182FD0BC09B
:102EE0009091DC019923A1F060910201809103018E
:102EF000961738F0682F70E06038710500F38FE79F
:102F00000895899FC001112470E00E94DF21F4CF51
:102F100061E070E0D7CF81E00895803F31F40E94F6
:102F20000A1781958093DF010895813F19F40E946B
:102F30000A17F8CF823F31F40E940A1781958093D7
:102F4000DE010895833F19F40E940A17F8CF893FE4
:102F500029F40E9454178093E00108958A3F21F4D8
:102F60000E9454178195F7CF8B3F31F40E9454177C
:102F700081958093E10108958C3F19F40E945417C4
:102F8000F8CF843F31F48091DD0181608093DD01D1
:102F90000895853F21F48091DD018260F7CF863F5F
:102FA00021F48091DD018460F1CF873F21F480918D
:102FB000DD018860EBCF883F21F48091DD018061E5
:102FC000E5CF8D3F31F48091DB0181608093DB019F
:102FD00008958E3F21F48091DB018260F7CF8F3F0F
:102FE000B9F78091DB018460F1CF803FC1F480911B
:102FF000DF0187FD1092DF018091DE0181110EC09B
:103000008091DF0181110AC08091E001811106C029
:103010008091E101811102C01092DC010895813F8D
:1030200029F48091DF0118162CF3E6CF9091DE0190
:10303000823F29F497FFE0CF1092DE01DDCF833F7E
:1030400019F41916CCF3D8CF893F39F48091E001F7
:10305000181694F61092E001CFCF8A3F29F48091A0
:10306000E00187FFC9CFF6CF8B3F39F48091E101B2
:1030700087FFC2CF1092E101BFCF8C3F29F480912E
:10308000E1011816BCF3B8CF843F31F48091DD0123
:103090008E7F8093DD01B0CF853F21F48091DD01EB
:1030A0008D7FF7CF863F21F48091DD018B7FF1CFBB
:1030B000873F21F48091DD01877FEBCF883F21F4AA
:1030C0008091DD018F7EE5CF8D3F31F48091DB0172
:1030D0008E7F8093DB0190CF8E3F21F48091DB01C6
:1030E0008D7FF7CF8F3F09F087CF8091DB018B7FFA
:1030F000F0CF8DED91E00E94A2080E9441159093BF
:10310000DA018093D90108951F93CF93DF938091C3
:10311000D9019091DA010E944D15AC019091DC012A
:103120002091060130E0911106C0209107018AE04C
:10313000289F900111244217530780F08091DE01EF
:10314000C091DF011091E001D091E10181110AC02D
:10315000C11178C0111176C0D11174C0DF91CF9127
:103160001F9108959F3F19F09F5F9093DC011816FF
:1031700024F40E940A178093DE018091DE0187FF0C
:1031800005C00E940A1781958093DE011C1624F465
:103190000E940A178093DF018091DF0187FF05C03D
:1031A0000E940A1781958093DF016091DE016623FA
:1031B00031F1C091DF01CC2311F1062E000C770B09
:1031C000880B990B0E94E62023E333E343E35FE39C
:1031D0000E944A210E94AE206093DE016C2FCC0F2A
:1031E000770B880B990B0E94E62023E333E343E33C
:1031F0005FE30E944A210E94AE206093DF01111616
:1032000024F40E9454178093E0018091E00187FF2D
:1032100005C00E94541781958093E0011D1624F487
:103220000E9454178093E1018091E10187FF05C05E
:103230000E94541781958093E101DF91CF911F91F6
:103240000C9479189F3F09F08FCFA0CF85E0EDED6A
:10325000F1E0DF011D928A95E9F71092DC011092EE
:10326000DB0108950E949314811102C00E9474141E
:103270000E94B91480930A0280FF03C086950C94C3
:10328000CE0480E0FCCF80910A02982F969593306F
:1032900030F49F5F990F8170892B80930A0280918F
:1032A0000A02816080930A020E94BD1480910A0282
:1032B00086950C94CE0480910A02982F9E7F79F017
:1032C000825080930A028E7F91E009F490E0809111
:1032D0000A0290FB80F980930A020E94BD1480913B
:1032E0000A0286950C94CE0490910A02892F8E7F53
:1032F00090FF816080930A020E94BD1480910A02AF
:1033000080FF03C086950C94CE0480E0FCCF9091A2
:103310000A02892F86958F5F8F7791708430B8F479
:10332000880F892B80930A0280910A028E7F91E098
:1033300009F490E080910A0290FB80F980930A02E0
:103340000E94BD1480910A0286950C94CE0490933D
:103350000A02EACF90910A02292F26958227880F28
:103360009170982B90930A029E7F21E009F420E04F
:1033700080910A0220FB80F980930A020E94BD140A
:1033800080910A0286950C94CE04809102020895E1
:10339000CF93DF9300D01F92CDB7DEB79C01809111
:1033A0000F02843019F593E099833B832A8390932D
:1033B000E9008FEF9091E800815095FD06C095EDF2
:1033C0009A95F1F700008111F5CF8091E80085FF13
:1033D0000DC050E040E063E070E0CE0101960E9435
:1033E000231C8091E8008E778093E8000F900F9067
:1033F0000F90DF91CF910895CF93DF9300D01F926C
:10340000CDB7DEB720910F02243031F522E02983B9
:10341000805891099B838A8383E08093E9008FEF32
:103420009091E800815095FD06C095ED9A95F1F7D1
:1034300000008111F5CF8091E80085FF0DC050E0BC
:1034400040E063E070E0CE0101960E94231C809171
:10345000E8008E778093E8000F900F900F90DF9137
:10346000CF9108959C0180910F028430F9F482E09D
:103470008093E9009FEF8091E800915085FD06C0A0
:1034800085ED8A95F1F700009111F5CF8091E80064
:1034900085FF0CC050E040E065E070E0C9010E948B
:1034A000231C8091E8008E778093E8000895CF93E5
:1034B000DF93EC0180910F028430F1F490911201BE
:1034C0009923E9F09091080297FF19C08093E900D1
:1034D0008FEF9091E800815095FD06C095E19A9597
:1034E000F1F700008111F5CF8091E80050E040E055
:1034F00060E270E085FD1AC0DF91CF91089581E010
:103500008093E9008FEF9091E800815095FD06C00F
:1035100095ED9A95F1F700008111F5CF8091E800C3
:1035200085FFEACF50E040E068E070E0CE010E9405
:10353000231C8091E8008E778093E80080E2FE01F2
:10354000A2EEB1E001900D928A95E1F7D5CF80917E
:103550000E02811109C00E94B31D0E94101E8091AD
:10356000E20084608093E200089510920E020895B4
:10357000089508950C94071542E061EC81E00E94E3
:10358000311D42E061EC82E00E94311D42E061ECBD
:1035900083E00E94311D42E261EC84E00C94311D15
:1035A00080911102833009F455C030F4813071F1FB
:1035B000823009F491C008958A3009F47DC08B30BF
:1035C00009F463C0893009F044C08091100281324F
:1035D00009F03FC08091140290911502009711F0FC
:1035E0000397B9F58091E800877F8093E800809188
:1035F000E80082FF2AC08091F1008093020280914E
:10360000E8008B778093E8000C94651D8091100290
:10361000813AF9F48091E800877F8093E8008091F7
:10362000140290911502892B61F460E282EE91E020
:1036300070E00E94721C8091E8008B778093E80014
:10364000089560E090E080E0F3CF80910F02811157
:10365000CECF089580911002813AD9F7809114025B
:1036600090911502892BA9F78091E800877F8093BC
:10367000E8008091E80080FFFCCF809112018093E8
:10368000F1008091E8008E77BDCF809110028132E9
:1036900001F78091140290911502892BD1F6809147
:1036A000E800877F8093E8000E94651D80911202E8
:1036B000809312010C94740D80911002813249F6AE
:1036C0008091E800877F8093E8000E94651D8091CB
:1036D000130280930302089580911002813A09F049
:1036E000B8CF8091E800877F8093E8008091E80060
:1036F00080FFFCCF80910302C2CF84B7877F84BF55
:103700000FB6F894A895809160008861809360005E
:10371000109260000FBE80E88093610010926100FB
:103720000E94DA080E94B31D0E94101E8091E200E0
:1037300084608093E20078940E9492200E94DC08CA
:1037400088E091E00E94860880910F02853019F090
:103750000E94E408F9CF0E94C21480910D028823D0
:1037600099F30E94F314882379F30E940D1CECCF87
:10377000292F33272330310579F158F421303105D1
:10378000F1F02230310519F190E080E030E020E0E6
:103790001AC02132310599F122323105A9F764307E
:1037A00098F770E0FB01EE0FFF1FEE5DFE4F2081EA
:1037B0003181625E7E4FFB01808190E004C082E136
:1037C00090E029E035E0FA013183208308958DE609
:1037D00090E02CE934E0F7CF99278130910561F032
:1037E00028F0029789F6ECE6F4E002C0E8E9F4E09C
:1037F000849190E09F01E7CFE0E8F4E0F9CF6430F6
:1038000008F0C2CFE62FF0E0EE0FFF1FE65DFE4F9F
:103810002081318189E090E0D6CF80E189BD82E1CD
:1038200089BD09B400FEFDCF8091D8008F7D8093C3
:10383000D8008091E00082608093E0008091E000F9
:1038400081FDFCCF0895AF92BF92CF92DF92FF929D
:103850000F931F93CF93DF936C01EB018A010E94BA
:10386000841DF82E811123C00115110539F0F801CE
:1038700080819181C81BD90BC80ED91EB12CA12CF7
:103880002097A9F08091E80085FD22C08091E80092
:103890008E778093E80001151105A1F0F801808171
:1038A0009181A80EB91EB182A08285E0F82E8F2DDD
:1038B000DF91CF911F910F91FF90DF90CF90BF903C
:1038C000AF9008950E94841D8823D1F2F82EEFCF87
:1038D000F60181916F018093F1002197FFEFAF1AFC
:1038E000BF0ACECFFC018091160290911702861775
:1038F0009707A0F06115710529F49091E8009E7773
:103900009093E80090E06115710551F4911108C0A1
:103910008091E80082FF35C080E00895BC01F2CFBD
:1039200080910F028823C9F18530C9F18091E800A8
:1039300083FD31C08091E80082FDEACF8091E800EC
:1039400080FFE1CF2091F3008091F200322F282FE9
:103950006115710519F02830310558F091E02830D3
:10396000310509F090E02091E8002E772093E800DF
:10397000CACF81918093F100615071092F5F3F4F51
:10398000E7CF80910F02882341F0853041F080918C
:10399000E80083FFBDCF81E0089582E0089583E0D1
:1039A0000895FC01809116029091170286179707DF
:1039B000A0F06115710529F48091E8008E7780935D
:1039C000E80090E06115710551F4911108C08091F3
:1039D000E80082FF36C080E00895BC01F2CF8091FC
:1039E0000F028823D1F18530D1F18091E80083FD69
:1039F00032C08091E80082FDEACF8091E80080FF2C
:103A0000E1CF2091F3008091F200322F282F611531
:103A1000710519F02830310558F091E02830310552
:103A200009F090E08091E8008E778093E800CACF9B
:103A300084918093F1003196615071092F5F3F4F5F
:103A4000E6CF80910F02882341F0853041F08091CC
:103A5000E80083FFBCCF81E0089582E0089583E011
:103A60000895982F973028F08F708093E90081E0B7
:103A700008959093E900242F762F50E0981731F0A5
:103A80007091EC002091ED005091F00021FD02C0FA
:103A90009F5FE8CF3091EB003E7F3093EB00309199
:103AA000ED003D7F3093ED003091EB0031603093BD
:103AB000EB007093EC002093ED005093F000209108
:103AC000EE0027FDE5CF80E008958091100287FF8A
:103AD00013C08091E80082FF06C08091E8008B77D8
:103AE0008093E80004C080910F028111F2CF089505
:103AF00080910F028823D9F38091E80080FFF8CFEE
:103B00008091E8008E77ECCF2091E4003091E500C1
:103B100085E69091EC0090FF06C09091E80090FF40
:103B200006C080E008959091E80092FDFACF909150
:103B30000F02992391F0953091F09091EB0095FD53
:103B400010C04091E4005091E5002417350709F3B7
:103B500081509A01F1F684E0089582E0089583E0AF
:103B6000089581E008950E94211E0E94291EE0EE22
:103B7000F0E0808181608083E8EDF0E080818F77E4
:103B8000808319BCA7EDB0E08C918E7F8C938081EF
:103B90008F7E808310920E0208950F931F93CF9310
:103BA000DF930E94211E0E94291EC8EDD0E088816B
:103BB0008F77888388818068888388818F7D8883D8
:103BC00019BC10920F0210920B0210920D0210926B
:103BD0000C0200EE10E0F80180818B7F80838881E9
:103BE0008160888342E060E080E00E94311DE1EE68
:103BF000F0E080818E7F8083E2EEF0E08081816062
:103C00008083808188608083F80180818E7F8083BB
:103C1000888180618883DF91CF911F910F910895F2
:103C2000E8EDF0E080818F7E8083E7EDF0E0808139
:103C30008160808384E082BF81E080930E020C94D7
:103C4000CD1DE8EDF0E080818E7F80831092E20050
:103C500008951092DA001092E10008951F920F92D9
:103C60000FB60F9211242F933F934F935F936F934F
:103C70007F938F939F93AF93BF93EF93FF93809125
:103C8000E10082FF0BC08091E20082FF07C08091BB
:103C9000E1008B7F8093E1000E9491208091DA0007
:103CA00080FF19C08091D80080FF15C08091DA0094
:103CB0008E7F8093DA008091D90080FF94C080E1EC
:103CC00089BD82E189BD09B400FEFDCF81E080930A
:103CD0000F020E94A71A8091E10080FF19C0809115
:103CE000E20080FF15C08091E2008E7F8093E200A9
:103CF0008091E20080618093E2008091D800806230
:103D00008093D80019BC85E080930F020E94B91AF5
:103D10008091E10084FF29C08091E20084FF25C0EA
:103D200080E189BD82E189BD09B400FEFDCF8091AB
:103D3000D8008F7D8093D8008091E1008F7E8093A2
:103D4000E1008091E2008F7E8093E2008091E200AA
:103D500081608093E20080910B02882309F449C0BE
:103D600084E080930F020E94BA1A8091E10083FFE1
:103D700029C08091E20083FF25C08091E100877F08
:103D80008093E10082E080930F0210920B028091F9
:103D9000E1008E7F8093E1008091E2008E7F80932E
:103DA000E2008091E20080618093E20042E060E006
:103DB00080E00E94311D8091F00088608093F000C7
:103DC0000E94B81AFF91EF91BF91AF919F918F918F
:103DD0007F916F915F914F913F912F910F900FBE07
:103DE0000F901F90189519BC10920F020E94B51ADF
:103DF00072CF8091E30087FD02C081E0B2CF83E003
:103E0000B0CF1F920F920FB60F9211242F933F93B2
:103E10004F935F936F937F938F939F93AF93BF93D2
:103E2000CF93EF93FF93C091E900CF708091EC00A6
:103E30001092E9008091F000877F8093F0007894E1
:103E40000E943D1F1092E9008091F00088608093ED
:103E5000F000C093E900FF91EF91CF91BF91AF9136
:103E60009F918F917F916F915F914F913F912F9192
:103E70000F900FBE0F901F9018951F93CF93DF9355
:103E8000CDB7DEB7AA970FB6F894DEBF0FBECDBF91
:103E9000E0E1F2E08091F100819322E0E831F20765
:103EA000C9F70E94D01A8091E80083FF42C0809138
:103EB0001002909111029A3008F03BC0E92FF0E017
:103EC000EC59F04E0C94F3216E1F921F991F921F14
:103ED000991FED1F0F20991F64207120803879F001
:103EE000823839F5809114028F708093E9008091B7
:103EF000EB0085FB882780F91092E90006C08091CD
:103F00000C0290910D02911182609091E800977FD0
:103F10009093E8008093F1001092F1008091E80006
:103F20008E772DC0282F2D7F21F48823D1F0823069
:103F300059F18091E80083FF0AC08091E800877FF3
:103F40008093E8008091EB0080628093EB00AA965A
:103F50000FB6F894DEBF0FBECDBFDF91CF911F919A
:103F6000089580911202813021F7933009F080E0AA
:103F700080930D021092E9008091E800877F809382
:103F8000E8000E94651DD5CF809112028111F2CF09
:103F9000809114028F7069F28093E9002091EB0008
:103FA00020FFE8CF933031F48091EB008062809362
:103FB000EB00E0CF9091EB0090619093EB0021E05B
:103FC00030E001C0220F8A95EAF72093EA001092B0
:103FD000EA008091EB008860EACF8111AACF1091AE
:103FE00012021F778091E3008078812B8093E30099
:103FF0008091E800877F8093E8000E94651D809192
:10400000E80080FFFCCF8091E30080688093E300AC
:1040100083E0111101C082E080930F028ACF8058A3
:10402000823008F086CF80911202909113028C3D6D
:1040300023E09207A1F583E08A838AE289834FB760
:10404000F894DE01139620E03EE051E2E32FF0E029
:1040500050935700E49120FF03C0E295EF703F5F5B
:10406000EF708E2F90E0EA30C0F0C7968D939D934D
:104070002F5F243159F74FBF8091E800877F8093ED
:10408000E8006AE270E0CE0101960E94721C809105
:10409000E8008B778093E8004CCFC096E7CFAE0165
:1040A0004F5F5F4F609114020E94B81BBC01892BC7
:1040B00009F43FCF9091E800977F9093E8008981C1
:1040C0009A810E94D11CE3CF803809F032CF8091D1
:1040D000E800877F8093E80080910B028093F100D5
:1040E0001DCF811126CF90911202923008F021CF7E
:1040F0008091E800877F8093E80090930B020E94F4
:10410000651D80910B02882331F084E080930F02BB
:104110000E94BC1A0ECF8091E30087FDF6CF81E0AC
:10412000F5CF0895CF9380910F02882399F0C09125
:10413000E900CF708091EC0080FD0EC080E0C82BBC
:104140001092E9008091E80083FD0E943D1FCF702E
:10415000C093E900CF91089580E8F1CF0E94B52087
:104160006894B1110C94442108950E94292188F08B
:104170009F5798F0B92F9927B751B0F0E1F0660F2B
:10418000771F881F991F1AF0BA95C9F714C0B1306C
:1041900091F00E944321B1E008950C944321672FD0
:1041A000782F8827B85F39F0B93FCCF3869577959B
:1041B0006795B395D9F73EF4909580957095619584
:1041C0007F4F8F4F9F4F0895E89409C097FB3EF4AF
:1041D00090958095709561957F4F8F4F9F4F992354
:1041E000A9F0F92F96E9BB279395F69587957795D2
:1041F0006795B795F111F8CFFAF4BB0F11F460FF92
:104200001BC06F5F7F4F8F4F9F4F16C0882311F0E9
:1042100096E911C0772321F09EE8872F762F05C0FD
:10422000662371F096E8862F70E060E02AF09A9598
:10423000660F771F881FDAF7880F9695879597F98D
:10424000089557FD9058440F551F59F05F3F71F086
:104250004795880F97FB991F61F09F3F79F08795ED
:104260000895121613061406551FF2CF4695F1DF76
:1042700008C0161617061806991FF1CF8695710506
:10428000610508940895E894BB2766277727CB013A
:1042900097F908950E945D210C94CE210E94C021BF
:1042A00038F00E94C72120F0952311F00C94B7211B
:1042B0000C94BD2111240C9444210E94212170F3FF
:1042C000959FC1F3950F50E0551F629FF001729FBB
:1042D000BB27F00DB11D639FAA27F00DB11DAA1FCA
:1042E000649F6627B00DA11D661F829F2227B00D17
:1042F000A11D621F739FB00DA11D621F839FA00DA2
:10430000611D221F749F3327A00D611D231F849FF1
:10431000600D211D822F762F6A2F11249F57504048
:104320009AF0F1F088234AF0EE0FFF1FBB1F661FC3
:10433000771F881F91505040A9F79E3F510580F08C
:104340000C94B7210C9444215F3FE4F3983ED4F3DE
:10435000869577956795B795F795E7959F5FC1F730
:10436000FE2B880F911D9695879597F9089597F9DB
:104370009F6780E870E060E008959FEF80EC08950B
:1043800000240A9416161706180609060895002434
:104390000A9412161306140605060895092E0394AE
:1043A000000C11F4882352F0BB0F40F4BF2B11F422
:1043B00060FF04C06F5F7F4F8F4F9F4F089597FB43
:1043C000072E16F4009407D077FD09D00E94F9213A
:1043D00007FC05D03EF4909581959F4F0895709508
:1043E00061957F4F0895EE0FFF1F0590F491E02D2A
:1043F0000994AA1BBB1B51E107C0AA1FBB1FA6172C
:10440000B70710F0A61BB70B881F991F5A95A9F77D
:1044100080959095BC01CD010895F999FECF92BD8C
:1044200081BDF89A992780B50895A8E1B0E042E0EF
:1044300050E00C943522262FF999FECF92BD81BD14
:10444000F89A019700B4021639F01FBA20BD0FB6D2
:10445000F894FA9AF99A0FBE08950196272F0E94B0
:104460001C220C941B22DC01CB01FC01F999FECF2C
:1044700006C0F2BDE1BDF89A319600B40D924150EC
:0A4480005040B8F70895F894FFCFFC
:10448A00B4012808140A321EC519571A321AFC191F
:10449A00C8190134C697669490F731333236404DC5
:1044AA003639D7058A0554051B05AE04C704E0044E
:0244BA00F90403
:00000001FF
