:100000000C9418020C945F020C945F020C945F0233
:100010000C945F020C945F020C945F020C945F02DC
:100020000C945F020C945F020C94AB1E0C947D1F29
:100030000C942A150C945F020C945F020C945F02DE
:100040000C945F020C945F020C945F020C945F02AC
:100050000C945F020C9492150C945F020C945F0256
:100060000C945F020C945F020C945F020C945F028C
:100070000C945F020C945F020C945F020C945F027C
:100080000C945F020C945F020C945F020C945F026C
:100090000C945F020C945F020C945F020C945F025C
:1000A0000C945F020C945F020C945F028E03900329
:1000B0009B0392039403960398039A039D039F0363
:1000C000A103AC03A303A503A703A903AB03AE03DA
:1000D0002A0B2A0B5C0B5C0B9A0BBA0B4F0D4F0DC6
:1000E000FC0B4F0DA90CA90C1B0D240D4F0D480D39
:1000F000B60CB60CB60CB60CB60CB60CB60CB60CF0
:10010000B60CB60CB60CB60CB60CB60CB60CB60CDF
:10011000C70CD50CDC0CE30CED0CDE0DDE0DF00D88
:10012000F00DE70DF00DF00DF00DDE0DDE0DEC0D18
:10013000F00DF00DEC0DEA1F112003211120032119
:100140005D2080200321D620E52014001A0008003D
:10015000150017001C0018000C00120013000461A9
:100160001600070009000A000B000D000E000F002A
:1001700028001D621B6806641900050011001000AC
:100180002C002A0029001E001F0020002100220050
:10019000230024002500260027003A003B003C00F5
:1001A0003D003E003F00400041004200430045004A
:1001B000E300E200000000000000005C00006500B9
:1001C00044000000000000000000000000000000EB
:1001D000000000000000000000000000000000001F
:1001E0000000000000004B000000000000000000C4
:1001F00000000000000000004A004E004D001E02FA
:100200001F02200221022202230224022D003400B8
:100210003100E0002B008B00000000000000000017
:100220008A0052003500E300E300E20000002C00E9
:100230002A002800500051004F000000000000007C
:100240000000000023022402250226020000000014
:10025000000000000000000000000000300032003C
:10026000000000000000000000000000000000008E
:100270003002640200000403300000001003470055
:100280006800650072006B0069006E0000002003CA
:1002900034003000200050006500720063006500EB
:1002A0006E007400200043006C00750062000000C6
:1002B0000403090409026D00040100A0FA09040006
:1002C0000001030101000921110100012240000782
:1002D00005810308000A0904010001030102000965
:1002E0002111010001224D000705820308000A09BF
:1002F000040200010300000009211101000122365F
:10030000000705830308000A090403000103000035
:100310000009211101000122390007058403200092
:10032000011201100100000008EDFE6060010001F3
:1003300002030105010906A101050719E029E715D6
:100340000025019508750181020508190129059507
:1003500005750191029501750391010507190029A1
:10036000F71500250195F875018102C00501098086
:10037000A10185021601002603001A81002A8300CC
:10038000751095018100C0050C0901A101850316B6
:100390000100269C021A01002A9C02751095018119
:1003A00000C005010902A1010901A1000509190107
:1003B0002905150025019505750181029501750333
:1003C00081010501093009311581257F95027508E4
:1003D000810609381581257F950175088106050C70
:1003E0000A38021581257F950175088106C0C00570
:1003F000010906A101050719E029E7150025019566
:100400000875018102950175088101050819012906
:10041000059505750191029501750391010507196F
:100420000029FF150026FF00950675088100C00011
:1004300011241FBECFEFDAE0DEBFCDBF04B603FE4E
:1004400027C080911E0290911F02A0912002B091BE
:1004500021028730904BA740B04BD1F410921E027E
:1004600010921F02109220021092210214BE84B733
:10047000877F84BF0FB6F894A8958091600088614B
:1004800080936000109260000FBEE0E0F8E30995F1
:1004900011E0A0E0B1E0E2EDF3E402C005900D92BE
:1004A000A233B107D9F722E0A2E3B1E001C01D9267
:1004B000AE31B207E1F70E94D21B0C94E7210C94F5
:1004C000000081E0089581E008950C9463020C948B
:1004D0005707CF92DF92EF92FF92843030F4811170
:1004E00005C0909180009F7704C083E090918000C8
:1004F000906890938000282F30E0AFEFBFEF0E940C
:10050000972123E030E040E050E00E946F212C373B
:1005100084E138074105510530F4C90169E070E014
:100520000E94472129C0DA01C9018A50974DAF4F77
:10053000BF4F6627782F892F9A2F25EF38E241E0A9
:1005400050E00E946F2169017A01CA01B9010E943D
:1005500037219B01AC01C701B6010E943721BB279F
:10056000A92F982F872F009721E0A207B10511F03E
:10057000BC0102C06FEF7FEF709389006093880029
:10058000FF90EF90DF90CF900895259A2D9882E804
:100590008093800089E1809381008FEF9FEF90939B
:1005A0008700809386000C9457190E94C5020C9412
:1005B000540708950C94D9020C94DA0208950E940D
:1005C000CC0D0E94DE022FEF84E39CE0215080409E
:1005D0009040E1F700C0000087E797E7909301089B
:1005E000809300080C94B815FF920F931F93CF933C
:1005F000DF938C01FC01C081D18180916001811168
:1006000013C08281882349F0CE010E94FE12F82E89
:10061000682FCE010E94A11204C0CE010E94D11207
:10062000F82EBE018F2D04C0CE010E94FE12BE0125
:100630000E946E04EC01B8010E946502882309F44F
:1006400042C1B801CE010E940407882309F43BC1CE
:10065000C531FCE5DF0739F50E94CF13282FF801DB
:1006600082814091000150910101882379F02A7A1A
:1006700091E009F490E090933201911102C069E297
:1006800001C065E3CA010E94B5140AC0809132011D
:10069000811102C069E201C065E3CA010E94C01471
:1006A0000E949C1310C1C6318CE5D80708F07EC0AB
:1006B000C130ECE5DE0759F4F8018281882309F4A2
:1006C00002C18091DA0181608093DA01FCC0C230FE
:1006D000FCE5DF0708F452C0F8018281882309F4A1
:1006E00055C00E942A14811102C00E940B140E945E
:1006F000471490E090930F0280930E02FE01E350A6
:10070000FC45E231F10530F4EA5AFF4F80910E02C8
:100710000C94912180910E02816027C0826025C0D7
:10072000846023C0806121C080621FC080641DC0BE
:1007300080681BC08460886018C08E7F16C08D7F63
:1007400014C08B7F12C08F7E10C08F7D0EC08F7B38
:100750000CC08F770AC08B7F877F07C087FB22275B
:1007600020F991E0922790FB87F980930E02809107
:100770000E020E944B140E94CC0DA5C0C115DC4591
:1007800069F081E08093370180933801C801DF91DF
:10079000CF911F910F91FF900C946102F80182811B
:1007A000882309F490C00E94DF028DC0C63DECE5AD
:1007B000DE0759F5F8018281882361F01092380133
:1007C0000E945C15909336018093350180E20E946F
:1007D000E60A79C080913801882321F080E20E94E6
:1007E000ED0A71C080913501909136010E94681523
:1007F000883C910598F780E20E94ED0A88E20E9409
:10080000900988E20E94870A5EC0C73DFCE5DF07C9
:1008100008F044C0C43D8CE5D80719F5F801828181
:10082000882351F0109237010E945C159093340197
:100830008093330182E0CBCF8091370181110FC0CB
:1008400080913301909134010E946815883C910594
:1008500030F486E20E94900986E20E94870A82E0D4
:10086000BECFC53DDC4509F08CCFF80182818111F6
:10087000A5CF809138018111B1CF80913501909140
:1008800036010E946815883C910508F0A7CF87E2E1
:100890000E94900987E20E94870AA0CFC93DFCE52B
:1008A000DF0731F4F8018281882369F080E009C014
:1008B000CA3DDC4509F065CFF8018281882319F033
:1008C00082E00E946E1C80E0DF91CF911F910F911A
:1008D000FF90089580E090E00895089596E0799F54
:1008E000F00111249EE1899FE00DF11D1124E60F16
:1008F000F11DEE0FFF1FE65BFE4F85919491089569
:10090000880F991FFC01EA58FD4F85919491089535
:10091000CF93DF930E946E040E946306EC01811561
:1009200021E5920708F042C0811530E5930708F0F1
:100930001EC1883E910500F5803E910508F0BFC1BB
:10094000883A910570F4853A910508F09DC0813090
:10095000910509F4B4C108F46BC1049708F0AFC164
:1009600067C18D3B910508F49AC0803C910508F45D
:100970005FC1805C9109EBC0811540E3940780F46E
:10098000811550E2950708F0E1C0803F910508F419
:100990004FC18F3F910511F008F091C1D0658FC113
:1009A000811560E4960708F0DFC0D5C0C11589E560
:1009B000D80740F5C11528E5D20708F025C1C115B3
:1009C00034E5D30778F4C11543E5D40708F001C135
:1009D000C11552E5D50708F0E6C0DC2FCC27C16F62
:1009E000D06A6DC1C11565E5D60708F408C1C11507
:1009F00086E5D80708F01CC1CF71DD27DC2FCC2796
:100A0000D0625DC1CB3B2CE5D20709F408C1D8F414
:100A1000C93B4CE5D40709F4FCC008F0FDC0C11582
:100A20006AE5D60708F004C18C2F8F70806E90E0C5
:100A3000906A24E0D695C7952A95E1F7CF709C017E
:100A40003C2BE9013CC1CE3B8CE5D80709F4EDC055
:100A500060F4CC3B3CE5D30709F4E4C0CD3BDC4576
:100A600009F0E6C0C0E0D2ED2AC1CE019056811552
:100A7000904208F0DDC08D2F8F710E94E006DD27C7
:100A8000D0628F71D82B1BC1853A910509F4D3C070
:100A9000863A910509F0D2C0C2E8D0E410C1883A84
:100AA000910509F4CEC0893A910509F4CDC08A3A7E
:100AB000910509F4CCC08B3A910509F4CBC08C3A6E
:100AC000910509F4CAC08B3B910509F4C9C08C3B60
:100AD000910509F4C8C08D3A910509F4C7C0803B5F
:100AE000910509F4C6C08E3A910509F4C5C08F3A44
:100AF000910509F4C4C0813B910509F4C3C0823B50
:100B0000910509F4C2C0833B910509F4C1C0843B3F
:100B1000910509F4C0C0853B910509F4BFC0863B2F
:100B2000910509F4BEC0873B910509F4BDC0883B1F
:100B3000910509F4BCC0893B910509F4BBC08A3B0F
:100B4000910509F4BAC0C0E0D4E4B9C09F700E9416
:100B50008004EC01B4C09927D3FF03C0EC01D86C2A
:100B6000AEC0EC01D06CABC0DF70D06AA8C0282F3B
:100B7000237081E090E002C0880F991F2A95E2F768
:100B80009C689E0174E0369527957A95E1F723706D
:100B9000922BCF70C695C69560E2C69FE0011124E6
:100BA000C82BD92B8CC02C2F2695269580E2289F08
:100BB00090011124C370DD2781E090E0AC0102C0F8
:100BC000440F551FCA95E2F7EA01C22BD32BDC680C
:100BD00076C02C2F2695269580E2289F900111241F
:100BE000C370DD2781E090E0AC0102C0440F551FC7
:100BF000CA95E2F7EA01C22BD32BDA6860C0DC2F7A
:100C0000CC27C46FD06A5BC0DC2FCC27C06FD06A02
:100C100056C0C0E0D4ED53C0C0E0D5ED50C0C0E038
:100C2000D1ED4DC0C0E0D0ED4AC0C0E0D3ED47C02B
:100C3000C0E0D0E044C0C1E8D0E441C0C3E8D0E4A3
:100C40003EC0C2EED4E43BC0C9EED4E438C0CAEE24
:100C5000D4E435C0C5EBD4E432C0C6EBD4E42FC035
:100C6000C3EBD4E42CC0C4EBD4E429C0C7EBD4E478
:100C700026C0CCECD4E423C0CDECD4E420C0C3E83F
:100C8000D5E41DC0CAE8D5E41AC0C2E9D5E417C04E
:100C9000C4E9D5E414C0C1E2D6E411C0C3E2D6E48D
:100CA0000EC0C4E2D6E40BC0C5E2D6E408C0C6E27A
:100CB000D6E405C0C7E2D6E402C0CAE2D6E4CE015B
:100CC000DF91CF9108958238910549F1B0F48133D5
:100CD000910509F458C048F48932910509F44EC0D1
:100CE0008A32910509F454C008958533910509F4B9
:100CF00040C08933910599F00895833E910529F10B
:100D000038F4803E910591F0823E9105A1F008955E
:100D1000863E9105F9F0873E910531F108952091C5
:100D20000E0220FD3AC021FD38C0089580910E02C8
:100D300080FD35C032C080910E0282FF32C08091AA
:100D40000E0284FD30C083EE39C080910E0282FD18
:100D500028C0F5CF80910E0283FF27C080910E023C
:100D600084FD21C087EE2AC080910E0283FD1DC044
:100D7000F5CF80910E0285FD1AC01BC080910E0236
:100D800085FD17C014C080910E0286FD14C015C0E9
:100D900080910E0286FD11C00EC080EE0FC089E367
:100DA0000DC082EE0BC080E009C086EE07C089E26C
:100DB00005C085E303C08AE201C081E390E00895A5
:100DC00090910E0292FF0DC0282F2871283019F43F
:100DD000877F846006C0282F2471243011F48B7F14
:100DE000886093FF0DC0282F2871283119F4877E61
:100DF000846106C0282F2471243111F48B7E886110
:100E000094FD877E089508950F931F93CF93FB0160
:100E10002281211102C0C1E041C08C01C091460174
:100E2000C11125C086319C45B1F70E94030781E0BE
:100E3000809346010E945C15909345018093440184
:100E40001092390110923B0110923A0110923D012B
:100E500010923C0110923F0110923E01109241010C
:100E600010924001109243011092420117C08091EC
:100E70004401909145010E9468158C32914058F6CA
:100E800090913901E92FF0E0EE0FFF1FE65CFE4F75
:100E9000118300839F5F90933901C0E08C2FCF9125
:100EA0001F910F91089508950C94530708950C9481
:100EB0005607A9E1B1E041E050E025E02A0F8D910D
:100EC000E82FE295EF70F0E031A18F70BA0102C017
:100ED000660F771F8A95E2F7CB01962F90959323A3
:100EE00091A392A1892B82A32A13E9CFA3E1B1E0B8
:100EF00041E050E026E02A0F8D91E82FE295EF7057
:100F0000F0E031A18F70BA0102C0660F771F8A9599
:100F1000E2F7CB01962F9095932391A392A1892B71
:100F200082A32A13E9CFA7E4B1E0ECE4F1E085E085
:100F30008E0F11921D928E13FCCF0C94D5022F921E
:100F40003F925F926F927F928F929F92AF92BF92E9
:100F5000CF92DF92EF92FF920F931F93CF93DF9385
:100F600029E1C22E21E0D22E07E411E0E801EE24AF
:100F7000E394F12CAA24A39445E0B42EB00EBE0154
:100F800088801882D6018D916D01E82FE295EF706F
:100F9000F0E021A18F70A70102C0440F551F8A9570
:100FA000E2F7CA01242B21A322A1942E9094292197
:100FB00022A350EA5A95F1F793E1292E91E0392EB8
:100FC00020E030E0D1017D901D01472D42954F700A
:100FD00050E0DA0190965C906880572D5F70D701E1
:100FE00002C0AA0FBB1F5A95E2F7AD01452139F4A3
:100FF0004E2D022E01C0440F0A94EAF701C040E0D2
:10100000462948832F5F3F4F26303105D9F691A1FD
:10101000992291A292A1892B82A32196FB01808122
:10102000881641F0A09251010E945C1590935301E3
:1010300080935201BC12A3CF80915101882391F07B
:1010400080915201909153010E946815069750F0CB
:10105000ECE4F1E0D8018D918D018193BA12FACFC1
:10106000109251010E94670281E0DF91CF911F91A0
:101070000F91FF90EF90DF90CF90BF90AF909F9037
:101080008F907F906F905F903F902F900895E82F02
:10109000F0E0E45BFE4F808108950895909359013C
:1010A000809358010895E0915801F09159013097CB
:1010B00021F00190F081E02D099480E00895E09105
:1010C0005801F0915901309721F00280F381E02D11
:1010D00009940895E0915801F0915901309721F059
:1010E0000480F581E02D09940895209156013091F6
:1010F00057018217930771F090935701809356011F
:10110000E0915801F0915901309721F00680F78164
:10111000E02D0994089520915401309155018217D2
:10112000930771F09093550180935401E091580119
:10113000F0915901309721F00084F185E02D099458
:10114000089508950C94A10881E008950E94531514
:1011500085B7806885BF85B7806885BF0E945907BD
:101160000E940D160C945719CF92DF92EF92FF92C6
:101170000F931F93CF93DF93CDB7DEB72B970FB6A7
:10118000F894DEBF0FBECDBF0E949F070E94A40847
:10119000811111C08FEF89838A831B820E945C15A5
:1011A0008160782F9D838C8349815A816B818D81E9
:1011B0000E945C0956C08BE5C82E81E0D82E00E065
:1011C00010E0E02E802F0E944708F60141916F0148
:1011D000F42EF82631F40F5F1F4F0530110589F703
:1011E000D9CF9091DA0191FF04C08B870E944D08FE
:1011F0008B8520E030E04F2D50E0922FBA01022E77
:1012000002C0759567950A94E2F760FF24C02E83AB
:10121000EF8221E030E0690102C0CC0CDD1C9A9520
:10122000E2F790E08C219D21892B09F420E02887AA
:101230000E945C158160782F9A8789874E815F8133
:1012400068858A850E945C09F801E55AFE4F808115
:10125000C826C08206C02F5F3F4F2630310569F691
:10126000BACF0E94B01810915A010E945308181763
:10127000A1F00E94530880935A012B960FB6F89460
:10128000DEBF0FBECDBFDF91CF911F910F91FF90B9
:10129000EF90DF90CF900C94DC022B960FB6F89471
:1012A000DEBF0FBECDBFDF91CF911F910F91FF9099
:1012B000EF90DF90CF900895CF93DF93CDB7DEB757
:1012C0002B970FB6F894DEBF0FBECDBF4F83588764
:1012D00069877A878B87DE01119686E0FD0111927E
:1012E0008A95E9F785E0FE01379601900D928A957F
:1012F000E1F749815A816B817C818D819E810E94B9
:1013000073102B960FB6F894DEBF0FBECDBFDF91E2
:10131000CF910895FC01808191810E943D13089531
:10132000882309F4F3C0682F8238C1F40E9453085F
:1013300081FDECC069E380910001909101010E9460
:10134000B5140E949C132FEF81EE94E02150804051
:101350009040E1F700C0000069E319C08338F9F458
:101360000E94530880FDD2C063E5809100019091F6
:1013700001010E94B5140E949C132FEF81EE94E0AE
:10138000215080409040E1F700C0000063E580916B
:101390000001909101010E94C0140C949C138438A8
:1013A000C1F40E94530882FDB1C067E4809100013E
:1013B000909101010E94B5140E949C132FEF81EEC1
:1013C00094E0215080409040E1F700C0000067E4C5
:1013D000DECF8CEF860F813A38F480910001909136
:1013E00001010E94B514D9CF80E2860F883048F4FD
:1013F000677081E001C0880F6A95EAF70E94D213F6
:10140000CCCF8BE5860F833070F4653A29F0663ACD
:1014100031F083E890E005C081E890E002C082E806
:1014200090E00C94750888E5860F853108F06EC051
:10143000683A61F1693A69F16A3A71F16B3A79F1A6
:101440006C3A81F16B3B89F16C3B91F16D3A99F10A
:10145000603BA1F16E3AA9F16F3AB1F1613BB9F18C
:10146000623BC1F1633BC9F1643BD1F1653BD9F10A
:10147000663BE1F1673BE9F1683BF1F1693BF9F16A
:101480006A3B09F43FC080E090E03EC082EE90E00D
:101490003BC089EE90E038C08AEE90E035C085EB25
:1014A00090E032C086EB90E02FC083EB90E02CC040
:1014B00084EB90E029C087EB90E026C08CEC90E0B4
:1014C00023C08DEC90E020C083E891E01DC08AE845
:1014D00091E01AC082E991E017C084E991E014C05C
:1014E00081E292E011C083E292E00EC084E292E0D9
:1014F0000BC085E292E008C086E292E005C087E278
:1015000092E002C08AE292E00C948B08089588234E
:1015100009F45BC0682F823879F40E94530881FF78
:1015200054C069E380910001909101010E94B514BB
:101530000E949C1369E310C08338B1F40E945308E1
:1015400080FF43C063E580910001909101010E94FA
:10155000B5140E949C1363E58091000190910101F4
:101560000E94C0140C949C13843879F40E94530890
:1015700082FF2BC067E480910001909101010E94DD
:10158000B5140E949C1367E4E7CF8CEF860F813A75
:1015900018F380E2860F883048F4677081E001C05C
:1015A000880F6A95EAF70E94D813DCCF8BE5860F87
:1015B000833020F480E090E00C947508685A65311F
:1015C00020F480E090E00C948B080895882321F0AB
:1015D0000E94D2130C949C130895882321F00E943A
:1015E000D8130C949C1308954F925F926F927F9240
:1015F000BF92CF92DF92EF92FF920F931F93CF9300
:10160000DF937C01D62FC72FFC01058102950F7057
:10161000128111110E94EF130E949513882379F013
:10162000112369F080E28D0F883048F082E00E943B
:101630007E130E94951391E0B82EB92601C0B12CFB
:10164000CC2EC2948FE0C822D12CF601E859FF4F6E
:101650000C9491218C2F807FCF70882311F0C2953C
:10166000C07F112399F0CC2309F4D0C180E28D0F03
:10167000883010F0D11104C08C2F0E94D21303C007
:101680008C2F0E94E2130E949C13C0C18D2F0E94D8
:10169000870ACC2309F403C280E28D0F883010F052
:1016A000D11104C08C2F0E94D81303C08C2F0E942C
:1016B000E8130E949C13F3C18C2F807FCF7080327F
:1016C00011F0C295C07FDD2319F0D130C9F022C0DE
:1016D000112371F0002341F0013031F40E9408140D
:1016E0008C2B0E940214DBC10E9408148C2B46C173
:1016F000002319F0013009F4D2C10E94051418C06A
:10170000112321F0063008F0CAC10EC0053008F0E0
:10171000C6C10EC0112351F0002331F0F7018581BD
:1017200080FF74C18F7085838C2F28C101117FC108
:101730008C2F2AC18C2F86958695837090E0009718
:1017400019F0019761F0ABC1112321F08D2F9C2F6F
:10175000937002C080E090E00E947508B0C1112330
:1017600021F08D2F9C2F937002C080E090E00E94AA
:101770008B08A5C11123F9F0D53F51F0D63F71F088
:10178000D43FA9F4809108029091090281600BC0B6
:101790008091080290910902826005C08091080240
:1017A00090910902846090930902809308028D2F22
:1017B0000E94B8171EC0D53F51F0D63F71F0D43FFC
:1017C000A9F480910802909109028E7F0BC080914C
:1017D0000802909109028D7F05C0809108029091C6
:1017E00009028B7F90930902809308028D2F0E943B
:1017F00020180E94A51863C18C2F837009F050C077
:10180000111159C18D2F829586958770880F880F89
:101810009D2F9F70492E512C612C712C082E04C0D5
:10182000440C551C661C771C0A94D2F7D4FF14C0D4
:101830000FE010E020E030E0B901A80104C0440F3F
:10184000551F661F771F8A95D2F7CB01BA016095A5
:1018500070958095909503C060E070E0CB01C695CF
:10186000C695C370D0E0C230D10561F0C330D10558
:1018700081F06429752986299729219771F00E94A2
:10188000B61119C164297529862997290E94C811A2
:1018900012C10E94B611C301B2010E94A4110BC172
:1018A000112319F08C2F817001C08695882309F4CB
:1018B00002C18D2F829586958770880F880F9D2F86
:1018C0009F70492E512C612C712C082E04C0440CA1
:1018D000551C661C771C0A94D2F7D4FF14C00FE085
:1018E00010E020E030E0B901A80104C0440F551F0A
:1018F000661F771F8A95D2F7CB01BA016095709564
:101900008095909503C060E070E0CB01C695C695C8
:10191000C3704C2F50E04230510569F043305105FF
:1019200089F064297529862997294130510571F07C
:101930000E947C12C0C064297529862997290E94BB
:101940008E12B9C00E947C12C301B2010E946A12B9
:10195000B2C08D2F90E0FC01E05EF109E531F105A8
:1019600008F050C0E858FF4F0C949121DF708C2F85
:101970008F71112331F00E9403128D2F0E94E60A0D
:101980008EC00E9424128D2F0E94ED0A88C0112360
:1019900041F0053008F083C08C2F8F710E944912EE
:1019A0007EC0063008F07BC0F7CF112339F08C2FB2
:1019B0008F710E94031273C01123C9F38C2F8F7192
:1019C0000E9424126CC0112329F08C2F8F710E9469
:1019D000EE1165C00E94E91162C0112349F0CF7178
:1019E0008C2F0E94031263E08C2F0E94751357C046
:1019F00081E00E947E13023008F451C082E00E9410
:101A00007E134DC0112331F0002389F28D2F0E94E7
:101A1000900945C0002391F2D93349F45FEF67EE96
:101A200073E0515060407040E1F700C000008D2F1E
:101A30000E94870A34C04C2F4F706D2FC7010E943F
:101A40006A040E9417113BC0111139C0CF70D0E059
:101A5000C230D10599F03CF4209769F02197F9F450
:101A60000E9491192CC0C430D10571F054F0259713
:101A7000B1F480E00AC00E94741921C00E94AD191F
:101A80001EC00E94C7191BC083E00E94EA1917C03C
:101A90004C2F4F706D2FC7010E946D0410C088E05D
:101AA000C816D10441F05CF0EAE0CE1AD108F2E0A9
:101AB000CF16D10420F40E9453080E94DC02BB2000
:101AC000F1F00E94711380FD1AC0F70112820E948A
:101AD0006B130E940312C7010E948D0D0E946B13AD
:101AE000DF91CF911F910F91FF90EF90DF90CF90FA
:101AF000BF907F906F905F904F900C942412DF9175
:101B0000CF911F910F91FF90EF90DF90CF90BF90FA
:101B10007F906F905F904F9008950F931F93CF9396
:101B2000DF93EC01888199812B813C81232BB9F0D3
:101B30009F3F11F48F3F99F0CE010E94F402882359
:101B400071F0688179818A810E9448138C010E941A
:101B5000A0120E94A111B801CE010E94F40ADF91E7
:101B6000CF911F910F9108950E94EF130E94FF13D0
:101B700080910001909101010E94CB140E949C135E
:101B80000E944B190E94A51880E090E00E94750801
:101B900080E090E00C948B080E94DF130C94B40D4D
:101BA0000E943D13E92FE295EF70F0E03297EE309E
:101BB000F105B0F4E357FF4F0C949121803F91F071
:101BC00018F4803E68F40EC0843F51F40BC0803E90
:101BD00048F0813F29F406C093FB882780F90895D7
:101BE00080E0089581E00895CF93DF9300D000D086
:101BF0001F92CDB7DEB70F900F900F900F900F9000
:101C0000DF91CF910895CF93DF9300D000D000D023
:101C1000CDB7DEB726960FB6F894DEBF0FBECDBFA8
:101C2000DF91CF9108951F93CF93DF93C09161010E
:101C300016E080916201C81799F0D0E01C9FF00176
:101C40001D9FF00D1124ED59FE4F4081518162819D
:101C50007381848195810E94030E2196C770E9CF1C
:101C6000DF91CF911F91089540919301509194017C
:101C700060919501709196018091970190919801E2
:101C80000C94030E8091980182958F7009F054C0D6
:101C900080919501882309F44FC080916101A09142
:101CA000620160919301709194014091960150916D
:101CB0009701B6E08A1709F43FC090E0411551053D
:101CC000C1F17F3F11F46F3FA1F1B89FF001B99FBF
:101CD000F00D1124ED59FE4F218172132AC020818D
:101CE000621327C02281211124C02381348124174B
:101CF000350710F421503109241B350B283C3105E0
:101D0000C0F4209198012F7020612093980126E063
:101D1000289FF001299FF00D1124E859FE4F808182
:101D20008F708061808383E991E00E948D0D0C9417
:101D3000130E01968770BECF0895CF92DF92EF9277
:101D4000FF920F931F93CF93DF93CDB7DEB76297C8
:101D50000FB6F894DEBF0FBECDBF8C0185E0F80151
:101D6000DE011D9601900D928A95E1F7D8014C9104
:101D700011965C91119712966C9112971396CD90D3
:101D8000DC901497309193017091940180919601A9
:101D900090919701009709F46BC17F3F19F43F3F81
:101DA00009F466C1E0909501EE2009F4C0C02091CD
:101DB0009801C816D90628F0F601E81BF90BCF01E7
:101DC00004C0809590958C0D9D1DFF24F394883C54
:101DD000910578F0F12C207F09F0C6C07C2DD98ABE
:101DE000C88A89890E94F40D83E991E00E948D0DD3
:101DF000B1C0822F807F09F046C0751314C0341320
:101E000012C0611110C02F702061209398010E94B0
:101E1000340E83E991E00E948D0D80919801D801E4
:101E200015968C932EC0CD2819F15F3F11F44F3FCA
:101E3000F9F0F62E61111CC08091610120916201C0
:101E400036E0821709F45AC090E0389FF001399FBC
:101E5000F00D1124ED59FE4F7181571306C07081AA
:101E6000471303C07281711103C001968770E9CFD7
:101E7000F62E662309F427C1809198018160809332
:101E80009801F12C20C1751308C0341306C06111EC
:101E900004C080919801D801C3C04D875E878D85AD
:101EA0009E856A8B0E94D00D6A898823E1F16623A2
:101EB000D1F120919801822F82958F7090E0029746
:101EC00074F0809193019091940198878F83198683
:101ED000DB86CA862C87CE0107960E948D0D86E090
:101EE000F801A3E9B1E001900D928A95E1F70E9413
:101EF000420E0E94340EFF24F394E5C04D875E87A6
:101F00008D859E850E943D13292F22952F7030E0EC
:101F1000223031050CF0CBC09F7009F0C5C0805E47
:101F2000883008F4D0C0C8010E948D0DE4CFC816D7
:101F3000D90608F453C0F601E81BF90BCF01883C21
:101F4000910508F450C0F12C7C2DD98AC88A898962
:101F50000E94F40DE3E9F1E086E0DF011D928A952D
:101F6000E9F70E94340EAFC0751314C0341312C0C9
:101F7000611110C080919801F8018583C8010E9409
:101F80008D0D86E0E3E9F1E0DF011D928A95E9F726
:101F9000FE2C99C04D875E878D859E856A8B0E9439
:101FA000D00D6A89882309F4BECF662309F4BBCF1C
:101FB00020919801822F82958F7090E002970CF407
:101FC0008ECF80919301909194019A8389831B8293
:101FD000DD82CC822E83CE0101967FCF80959095B5
:101FE0008C0D9D1DACCFF62E662309F49CCF751386
:101FF0002EC034132CC02091980120FD1FC0822FC9
:1020000082958F70D9F0D80115962C9315978F3043
:1020100049F08F5F982F9295907F822F8F70892B38
:1020200015968C93C8010E948D0D86E0F801A3E9F6
:10203000B1E001900D928A95E1F793CF86E0F80127
:10204000A3E9B1E001900D928A95E1F73CC04D877C
:102050005E878D859E850E94D00D811140CF809135
:102060009801816080939801C8010E948D0D2BC05A
:10207000662309F458CF4D875E878D859E850E9423
:10208000D00DF82E882309F44ECF86E0F801A3E99D
:10209000B1E001900D928A95E1F783E991E00E9409
:1020A0008A090E94420E5DCF811139CF0CC02430C5
:1020B00031050CF038CF9F7009F431CFF8019581CC
:1020C000907F09F02CCF8F2D62960FB6F894DEBF6B
:1020D0000FBECDBFDF91CF911F910F91FF90EF9079
:1020E000DF90CF9008951F93CF93DF93CDB7DEB7E6
:1020F0002C970FB6F894DEBF0FBECDBF4F83588725
:1021000069877A878B879C87CE0107960E949D0EF0
:10211000882369F08F8198852A853B85232BF1F1EF
:102120009F3F09F063C08F3F09F060C037C086E071
:10213000FE013796DE01119601900D928A95E1F726
:102140006F817885EA85FB85309741F17F3F11F4F7
:102150006F3F21F12091620130E0C9010196877043
:1021600099274091610150E08417950709F447C011
:1021700069837A83FD83EC8396E0929FD001939FDD
:10218000B00D1124AD59BE4FFE01319601900D9254
:102190009A95E1F7809362010E94130E16E08091F8
:1021A0006101909162018917C1F1189FC00111244A
:1021B0008D599E4F0E949D0E882379F1E091610117
:1021C0001E9FF0011124ED59FE4F40815181628123
:1021D0007381848195810E94030E8091610190E05A
:1021E00001968770992780936101D9CF4F815885D7
:1021F00069857A858B859C850E94030ECFCF0E94CE
:10220000CC0D1092620110926101E3E9F1E086E0E9
:10221000DF011D928A95E9F7C1CF2C960FB6F8948D
:10222000DEBF0FBECDBFDF91CF911F910895EF921A
:10223000FF920F931F93CF93DF938C01892B09F4A7
:102240006CC0F12CEE24E394E8012196F80184910E
:10225000843740F4843008F051C0813081F08230FE
:1022600019F15BC0853709F444C0A8F19CE7980FC9
:10227000903708F052C08F770E94870A41C00E5FE6
:102280001F4FFE01C49180E28C0F883048F4C77064
:102290008E2D01C0880FCA95EAF70E94F21314C070
:1022A0008C2F0E9490092DC00E5F1F4FFE01C4911C
:1022B00080E28C0F883058F4C7708E2D01C0880FD3
:1022C000CA95EAF70E94F8130E949C131AC08C2F3B
:1022D0000E94870A16C00E5F1F4FFE01C491CC23D7
:1022E00081F08FE99FE00197F1F700C00000C15035
:1022F000F6CF0E5F1F4FFE01F49003C00E949009BD
:102300008E018F2D882309F49FCFEFE9FFE03197ED
:10231000F1F700C000008150F5CFDF91CF911F9100
:102320000F91FF90EF90089508950E94941160938B
:10233000B1017093B2018093B3019093B4010C94F6
:10234000B40D08950C9495110F931F930091B10152
:102350001091B2012091B3013091B401602B712B27
:10236000822B932B1F910F910C9495110F931F9318
:102370000091B1011091B2012091B3013091B401EB
:1023800060237123822393231F910F910C94951145
:102390000F931F930091B1011091B2012091B301ED
:1023A0003091B40160277127822793271F910F91E5
:1023B0000C94951108950C94DA110E94DB1160932E
:1023C000AD017093AE018093AF019093B0010C9476
:1023D000B40D60E070E0CB010C94DD110F931F93FE
:1023E00041E050E060E070E08A019B0104C0000F12
:1023F000111F221F331F8A95D2F7C901B8011F91FF
:102400000F910C94DD110F931F9341E050E060E0B9
:1024100070E004C0440F551F661F771F8A95D2F7DE
:102420008091AD019091AE01A091AF01B091B0014A
:102430008A019B01082B192B2A2B3B2BC901B801C0
:102440001F910F910C94DD110F931F9341E050E009
:1024500060E070E004C0440F551F661F771F8A9527
:10246000D2F740955095609570958091AD0190910F
:10247000AE01A091AF01B091B0018A019B01082388
:1024800019232A233B23C901B8011F910F910C94F2
:10249000DD110F931F9341E050E060E070E004C055
:1024A000440F551F661F771F8A95D2F78091AD01A3
:1024B0009091AE01A091AF01B091B0018A019B0152
:1024C000082719272A273B27C901B8011F910F9117
:1024D0000C94DD110F931F930091AD011091AE018B
:1024E0002091AF013091B001602B712B822B932B87
:1024F0001F910F910C94DD110F931F930091AD016B
:102500001091AE012091AF013091B0016023712391
:10251000822393231F910F910C94DD110F931F932E
:102520000091AD011091AE012091AF013091B00149
:1025300060277127822793271F910F910C94DD113B
:102540000895292F220F920F990F890FA82FA69572
:10255000A695A695877051E001C0550F8A95EAF7B8
:1025600085E0A89FD001112420E030E070E0F9015F
:10257000EA0FFB1FE756FE4F4081CB01022E02C03F
:10258000969587950A94E2F781709927819584271B
:102590008523842780832F5F3F4F2530310539F70E
:1025A0000895292F220F920F990F890F682F669592
:1025B00066956695982F977085E0689FB001112405
:1025C00040E050E080E0FA01E60FF71FE756FE4FCB
:1025D000208130E0092E02C0369527950A94E2F753
:1025E00021703327042E01C0220F0A94EAF7822BB0
:1025F0004F5F5F4F4530510531F70895CF92DF921D
:10260000EF92FF920F931F93CF93DF938C01C090B3
:10261000B101D090B201E090B301F090B40180918B
:10262000AD019091AE01A091AF01B091B001C82A67
:10263000D92AEA2AFB2ACFE1D0E0D701C6010C2E25
:1026400004C0B695A795979587950A94D2F780FF11
:1026500006C0B8018C2F0E948804019721F42197AD
:1026600060F780E001C08C2FDF91CF911F910F9117
:10267000FF90EF90DF90CF900895CF93DF93EC0120
:102680000E94FE12BE010E948804DF91CF9108953E
:102690001F93CF93DF93EB0190916001992321F079
:1026A000CB010E943D1313C0882349F0CB010E9447
:1026B000FE12182F682FCE010E94A11204C0CB0178
:1026C0000E94D112182FBE01812F0E948804DF9131
:1026D000CF911F9108958091B50185958595859538
:1026E00008958091B5018770089598E0899F9001C1
:1026F0001124262B2093B5010C9403122091B501CF
:10270000809582238093B501982F977069F430E00B
:10271000482F082E000C550B2417350729F08595F6
:10272000859585950C94241208959091B501977024
:1027300081E009F480E00895E0910001F091010149
:102740008091D9018083E0910001F0910101908195
:102750008091D801892B8083E0910001F0910101E3
:1027600090818091D701892B80838091B601882345
:1027700081F0E0910001F09101019081892B80832B
:1027800080910001909101010E94591481111092D1
:10279000B60180910001909101010C945F08809135
:1027A000D90108959091D901892B8093D901089579
:1027B00080959091D90189238093D9010895109231
:1027C000D90108959091D801892B8093D80108955B
:1027D00080959091D80189238093D8010895109213
:1027E000D80108959091D701892B8093D70108953E
:1027F00080959091D70189238093D70108951092F5
:10280000D70108958093B60108951092B6010895F6
:102810008091B60108956DEE7EEF80E090E00E9419
:10282000D12160E082E090E00E94BF2160E083E07F
:1028300090E00E94BF2160E084E090E00E94BF2110
:1028400060E085E090E00E94BF2160E086E090E0DB
:102850000C94BF2180E090E00E94B92121E08D3EE0
:102860009E4F09F020E0822F089582E090E00C94C2
:10287000B121682F82E090E00C94BF2183E090E0CA
:102880000C94B121682F83E090E00C94BF2184E088
:1028900090E00C94B121682F84E090E00C94BF216B
:1028A00086E090E00C94B121682F86E090E00C94D3
:1028B000BF21FC0131969C01205E3F4F80E0919149
:1028C00091118F5FE217F307D1F708959C01FC0186
:1028D00032969FEF80E04191461789F09F3F19F4AF
:1028E000411101C0982F8F5F8E31A9F79F3F39F0BA
:1028F000F901E90FF11D97FDFA9562830895089596
:10290000FC01329680962081261301C010823196F8
:10291000E817F907C1F70895262F269526952695DD
:102920002F3168F4FC01E20FF11D677021E030E007
:1029300001C0220F6A95EAF78181282B218308952F
:10294000262F2695269526952F3170F4FC01E20F4F
:10295000F11D677021E030E001C0220F6A95EAF7AF
:10296000209581812823218308952091120122231B
:1029700029F020910E0227FD0C948C140C946614FF
:1029800020911201222329F020910E0227FD0C94A0
:10299000A0140C948014FC01319680961192E817D3
:1029A000F907E1F7089508950C94D3148091150266
:1029B000843061F11092DB0120E488E190E00FB6F1
:1029C000F894A895809360000FBE2093600080E08B
:1029D0000E94690280E00E94DC020E94D41483B746
:1029E000817F846083BF83B7816083BF789488953B
:1029F00083B78E7F83BF0FB6F894A895809160004F
:102A0000886180936000109260000FBE0895089561
:102A10000895CF930E9407150E949F070E940815F2
:102A2000C0E08C2F0E944708811104C0CF5FC530E1
:102A3000C1F701C081E0CF91089508950C941D1550
:102A40000E94CC0D0E9457190E9453080E94DC027C
:102A50000C941E151F920F920FB60F9211248F9394
:102A60009F93AF93BF938091DB01811113C080913D
:102A70000A0290910B02A0910C02B0910D024196B6
:102A8000A11DB11D80930A0290930B02A0930C022A
:102A9000B0930D02BF91AF919F918F910F900FBE98
:102AA0000F901F90189582E084BD93E095BD9AEF3A
:102AB00097BD80936E0008952FB7F89480910A0215
:102AC00090910B02A0910C02B0910D022FBF0895BE
:102AD000CF92DF92EF92FF920F931F932FB7F8944C
:102AE00040910A0250910B0260910C0270910D020C
:102AF0002FBF6A017B01EE24FF248C0120E030E02F
:102B0000C016D106E206F30610F4415051099A01AD
:102B1000281B390BC9011F910F91FF90EF90DF9097
:102B2000CF90089578941F920F920FB60F921124B0
:102B30008F939F93AF93BF9380910A0290910B0262
:102B4000A0910C02B0910D020196A11DB11D8093C0
:102B50000A0290930B02A0930C02B0930D02BF9156
:102B6000AF919F918F910F900FBE0F901F9018956E
:102B700087E797E790930108809300089AE088E13F
:102B80000FB6F894A895809360000FBE90936000F4
:102B9000FFCFCF92DF92EF92FF920F931F93CF93CD
:102BA000C0E0E82EF12C8C2F0E94470800E010E0D6
:102BB000C82ED12CC601002E02C0959587950A9487
:102BC000E2F780FD06C00F5F1F4F0630110591F739
:102BD0000AC0602F7C2F80E00E946E04E816F90680
:102BE00091F781E004C0CF5FC530E9F680E0CF9176
:102BF0001F910F91FF90EF90DF90CF900895CF93AA
:102C0000C82F8CE20E94C915882321F08C2FCF9108
:102C10000C94C91580E0CF910895CF930E942A1497
:102C2000811102C00E940B14C5E6C15049F00E94F8
:102C30009F078FE39CE90197F1F700C00000F5CFF3
:102C400089E20E94FF1581110FC18AE20E94FF15DF
:102C500081110E940B1485E00E94FF1581110E94D2
:102C6000B8150E9435148093DA0187E00E94FF15A1
:102C70008823A9F18BE10E94FF15882351F08091F0
:102C8000DA0181FB222720F991E0922790FB81F95C
:102C90000EC08EE00E94FF15882361F08091DA015A
:102CA00082FB222720F991E0922790FB82F9809302
:102CB000DA0115C080E10E94FF159091DA018823A6
:102CC00041F093FB222720F981E0822780FB93F9D2
:102CD00004C0892F809580FB90F99093DA01809150
:102CE000DA010E9439140E94471490E090930F0279
:102CF00080930E0280EE0E94FF15882341F08091A0
:102D00000E02982F909590FB80F980930E0289E334
:102D10000E94FF15882359F080910E0281FB222723
:102D200020F991E0922790FB81F980930E0282EEC8
:102D30000E94FF15882359F080910E0282FB222702
:102D400020F991E0922790FB82F980930E0286EEA3
:102D50000E94FF15882359F080910E0283FB2227E1
:102D600020F991E0922790FB83F980930E0283EE85
:102D70000E94FF15882359F080910E0284FB2227C0
:102D800020F991E0922790FB84F980930E0285E36D
:102D90000E94FF15882359F080910E0285FB22279F
:102DA00020F991E0922790FB85F980930E0281E350
:102DB0000E94FF15882359F080910E0286FB22277E
:102DC00020F991E0922790FB86F980930E0281E131
:102DD0000E94FF15882359F080910E0287FB22275D
:102DE00020F991E0922790FB87F980930E02809161
:102DF0000E020E944B1487E20E94FF15C82F8EE13D
:102E00000E94FF158111C2608FE10E94FF158111A0
:102E1000C46080E20E94FF158111C86081E20E94B7
:102E2000FF158111C06182E20E94FF158111C0620D
:102E300083E20E94FF158111C06484E20E94FF15A5
:102E4000882311F0C06802C0CC2329F08C2F0E9487
:102E500042146C2F03C00E943E14682F70E080E083
:102E600090E0CF910C94A211CF9108958091DE0152
:102E700080FF0BC06091050185E0689FB0011124BF
:102E800075956795759567952BC081FF09C0609111
:102E9000050185E0689FB00111247595679520C0F4
:102EA00082FF07C06091050185E0689FB001112491
:102EB00017C09091DF019923D1F06091040196171A
:102EC00088F72091050185E0289F90011124929FA9
:102ED000A001939F500D112470E0CA010E945B2154
:102EE0006038710540F46115710539F002C065E084
:102EF00070E0862F08958FE7089581E0089580910E
:102F0000DE0180FF08C06091030170E07595679550
:102F10007595679521C081FF06C06091030170E03F
:102F20007595679519C082FF04C06091030170E038
:102F300010C09091DF019923C1F0609102019617B2
:102F4000A0F780910301899FC001112470E00E94C5
:102F50005B216038710528F46115710521F0862F19
:102F600008958FE7089581E0089561E070E0F4CF5F
:102F7000803F21F40E943617819504C0813F29F4D7
:102F80000E9436178093E2010895823F21F40E9447
:102F90003617819504C0833F29F40E943617809329
:102FA000E1010895893F19F40E947F1705C08A3F07
:102FB00031F40E947F1781958093E30108958B3F40
:102FC00021F40E947F17819504C08C3F29F40E9450
:102FD0007F178093E4010895843F21F48091E001FC
:102FE000816017C0853F21F48091E001826011C0AB
:102FF000863F21F48091E00184600BC0873F21F47B
:103000008091E001886005C0883F31F48091E00143
:1030100080618093E00108958D3F21F48091DE016D
:1030200081600BC08E3F21F48091DE01826005C07B
:103030008F3F29F48091DE0184608093DE01089542
:10304000803F39F48091E20187FF6CC01092E20169
:1030500069C0813F29F48091E2011816BCF362C077
:103060009091E101823F29F497FF5CC01092E10149
:1030700059C0833F19F41916CCF354C0893F41F469
:103080008091E30118160CF04DC01092E3014AC084
:103090008A3F29F48091E30187FF44C0F6CF8B3F3C
:1030A00039F48091E40187FF3DC01092E4013AC0F9
:1030B0008C3F29F48091E4011816BCF333C0843F9F
:1030C00021F48091E0018E7F17C0853F21F480912B
:1030D000E0018D7F11C0863F21F48091E0018B7F5C
:1030E0000BC0873F21F48091E001877F05C0883FB6
:1030F00031F48091E0018F7E8093E00113C08D3F19
:1031000021F48091DE018E7F0BC08E3F21F48091EF
:10311000DE018D7F05C08F3F29F48091DE018B7F1A
:103120008093DE018091E10181110EC08091E20166
:1031300081110AC08091E301811106C08091E401F0
:10314000811102C01092DF01089580EE91E00E948B
:103150006A080E945C159093DD018093DC0108955C
:103160001F93CF93DF938091DC019091DD010E944A
:103170006815AC019091DF01992321F0209106019F
:1031800030E006C0209107018AE0289F90011124B9
:103190004217530708F47BC08091E101C091E2011E
:1031A000D091E3011091E401811107C0C1116BC0FE
:1031B000D11169C0111167C06AC09F3F19F09F5FAC
:1031C0009093DF01181624F40E9436178093E101D2
:1031D0008091E10187FF05C00E9436178195809399
:1031E000E1011C1624F40E9436178093E2018091BD
:1031F000E20187FF05C00E94361781958093E201A6
:103200003091E1013323E1F02091E2012223C1F06A
:1032100045EB3403C0011124892F990F990B0097B6
:1032200009F481E08093E10135EB2303C00111240F
:10323000892F990F990B009709F481E08093E2019F
:103240001D1624F40E947F178093E3018091E3010F
:1032500087FF05C00E947F1781958093E3011116B7
:1032600024F40E947F178093E4018091E40187FF9A
:1032700005C00E947F1781958093E401DF91CF9173
:103280001F910C94A5189F3F09F099CFA1CFDF9112
:10329000CF911F910895E0EEF1E085E0DF011D92EE
:1032A0008A95E9F71092DF011092DE0108950E94DD
:1032B0002A14811102C00E940B140E9450148093A2
:1032C0001002282F269530E02430310524F081703B
:1032D0008660809310028091100280FF02C0869564
:1032E00001C080E00C94690220911002822F869523
:1032F000482F50E04330510544F48F5F982F990FC9
:10330000822F8170892B809310028091100281603E
:10331000809310020E9454148091100286950C94A0
:10332000690280911002982F969591F09158990F0B
:103330008170892B809310028E7F91E009F490E0D8
:103340008091100290FB80F9809310020E94541427
:103350008091100286950C94690280911002982F3A
:10336000909590FB80F980931002813019F483E0EE
:1033700080931002809110020E94541480911002D8
:1033800080FF02C0869501C080E00C946902909194
:103390001002892F86958F5F8F779170843028F483
:1033A000880F892B8093100202C0909310028091A5
:1033B00010028E7F91E009F490E08091100290FB62
:1033C00080F9809310020E94541480911002869517
:1033D0000C946902843008F083E0880F9091100209
:1033E0009170892B809310028E7F91E009F490E018
:1033F0008091100290FB80F9809310020E94541477
:103400008091100286950C946902809105020895BE
:103410000F931F93CF93DF9300D01F92CDB7DEB7EA
:103420008C010E947E1C823011F0843019F593E0EB
:1034300099831B830A839093E9008FEF9091E800B2
:10344000815095FD06C095ED9A95F1F70000811128
:10345000F5CF8091E80085FF0DC040E050E063E0CB
:1034600070E0CE0101960E949B1C8091E8008E774F
:103470008093E8000F900F900F90DF91CF911F91F4
:103480000F910895CF93DF9300D01F92CDB7DEB791
:1034900020911502243031F522E0298380589109CA
:1034A0009B838A8383E08093E9008FEF9091E8000B
:1034B000815095FD06C095ED9A95F1F700008111B8
:1034C000F5CF8091E80085FF0DC040E050E063E05B
:1034D00070E0CE0101960E949B1C8091E8008E77DF
:1034E0008093E8000F900F900F90DF91CF91089597
:1034F000CF93DF93EC010E947E1C823011F0843068
:10350000F9F482E08093E9009FEF8091E800915008
:1035100085FD06C085ED8A95F1F700009111F5CF84
:103520008091E80085FF0CC040E050E065E070E06D
:10353000CE010E949B1C8091E8008E778093E8006A
:10354000DF91CF910895CF93DF93EC010E947E1C11
:10355000823019F0843009F047C08091120188232D
:10356000E1F080910E0287FF18C084E08093E900AB
:103570008FEF9091E800815095FD06C095E19A95F6
:10358000F1F700008111F5CF8091E80085FF2CC094
:1035900040E050E060E270E017C081E08093E90015
:1035A0008FEF9091E800815095FD06C095ED9A95BA
:1035B000F1F700008111F5CF8091E80085FF14C07C
:1035C00040E050E068E070E0CE010E949B1C8091DA
:1035D000E8008E778093E80080E2FE01A5EEB1E07E
:1035E00001900D928A95E1F7DF91CF910895809136
:1035F0001402811109C00E94301E0E948D1E80910C
:10360000E20084608093E20008951092140208950D
:10361000089508950C94201542E061EC81E00E9429
:10362000AA1D42E061EC82E00E94AA1D42E061EC2A
:1036300083E00E94AA1D42E261EC84E00C94AA1D82
:1036400080911702833009F455C030F4813071F055
:10365000823009F48EC008958A3009F47AC08B3024
:1036600009F460C0893009F09CC020C08091160226
:10367000813A09F096C08091E800877F8093E80046
:1036800080911A0290911B02892B21F460E285EE51
:1036900091E003C060E080E090E070E00E94E61CF2
:1036A0008091E8008B778093E8000895809116025E
:1036B000813209F076C080911A0290911B02009726
:1036C00019F0039709F06DC08091E800877F80931F
:1036D000E8008091E80082FD05C08091150281110B
:1036E000F8CF5FC08091F100809305028091E800DF
:1036F0008B7753C080911602813A09F052C08091B5
:103700001A0290911B02892B09F04BC08091E800AE
:10371000877F8093E8008091E80080FFFCCF809154
:10372000120136C0809116028132D9F580911A02B9
:1037300090911B02892BA9F58091E800877F8093E7
:10374000E8000E94DF1D80911802809312010C9402
:10375000CC0D80911602813221F58091E800877F9F
:103760008093E8000E94DF1D809119028093060279
:10377000089580911602813AA1F48091E800877F34
:103780008093E8008091E80080FFFCCF80910602E2
:103790008093F1008091E8008E778093E8000C948C
:1037A000DF1D089584B7877F84BF0FB6F894A8956E
:1037B00080916000886180936000109260000FBE6D
:1037C00080E880936100109261000E94A2080E942C
:1037D000301E0E948D1E8091E20084608093E20082
:1037E00078940E941C210E94A60888E091E00E9423
:1037F0004E0880911502853069F40E94D61480919C
:1038000013028823B1F30E940915882391F30E94C3
:10381000851CEFCF0E94B408ECCF0C940F1C292F0D
:10382000332723303105C9F064F42130310581F0AC
:103830002230310509F049C08DE690E024EB32E0FA
:1038400048C02132310521F12232310571F13DC0EC
:1038500082E190E021E233E03CC09927813091057C
:1038600071F02CF4892B89F5E0EBF2E00DC0823089
:10387000910541F0039749F5E6E7F2E005C0EEE86F
:10388000F2E002C0ECE7F2E0849190E09F0121C0F9
:1038900064307105D0F4660F771FFB01E65DFE4FC3
:1038A0002081318189E090E014C06430710568F4B2
:1038B000FB01EE0FFF1FEE5DFE4F20813181FB010A
:1038C000E25EFE4F808190E004C080E090E020E066
:1038D00030E0FA013183208308950895CF93C82FF3
:1038E0000E946D1CC0930702CF910895809115022C
:1038F000843011F081E0089582E0089580910702FC
:10390000811102C00C94761C089580E189BD82E18A
:1039100089BD09B400FEFDCF8091D8008F7D8093D2
:10392000D8008091E00082608093E0008091E00008
:1039300081FDFCCF0895CF92DF92EF92FF920F931B
:103940001F93CF93DF93EC018B016A010E94FE1D50
:10395000811133C0C114D10439F0F6018081918105
:10396000081B190BC80FD91FE12CF12C01151105EB
:1039700019F18091E80085FD16C08091E8008E77EE
:103980008093E800C114D10449F0F601808191814F
:10399000E80EF91EF182E08285E00FC00E94FE1D54
:1039A000882321F30AC089918093F1000150110905
:1039B000FFEFEF1AFF0ADACF80E0DF91CF911F917E
:1039C0000F91FF90EF90DF90CF90089520911C020F
:1039D00030911D022617370748F06115710539F43B
:1039E0002091E8002E772093E80001C0B90140E063
:1039F00061157105A9F120911502222309F443C034
:103A0000253009F442C02091E80023FD40C02091F8
:103A1000E80022FD32C02091E80020FFE9CF40916C
:103A2000F3002091F20030E0342BFC01CF0161154E
:103A3000710559F02830310540F481918093F100EF
:103A4000615071092F5F3F4FF1CF41E028303105C0
:103A500009F040E02091E8002E772093E800C8CFDD
:103A60004111C9CF0AC080911502882361F08530C9
:103A700061F08091E80083FD0AC08091E80082FF38
:103A8000F2CF80E0089582E0089583E0089581E018
:103A9000089520911C0230911D022617370748F027
:103AA0006115710539F42091E8002E772093E80024
:103AB00001C0B901FC0120E06115710591F180910F
:103AC0001502882309F440C0853009F43FC0809175
:103AD000E80083FD3DC08091E80082FD2FC0809109
:103AE000E80080FFE9CF2091F3008091F20090E0A0
:103AF000922B6115710559F08830910540F424919D
:103B00002093F1003196615071090196F2CF21E0C6
:103B1000089709F020E08091E8008E778093E80014
:103B2000CBCF2111CCCF0AC080911502882361F040
:103B3000853061F08091E80083FD0AC08091E80043
:103B400082FFF2CF80E0089582E0089583E0089537
:103B500081E00895982F973058F59093E9009817D1
:103B600039F07091EC002091ED005091F00003C00D
:103B7000242F762F50E021FF19C03091EB003E7FBB
:103B80003093EB003091ED003D7F3093ED003091AC
:103B9000EB0031603093EB007093EC002093ED006C
:103BA0005093F0002091EE0027FF07C09F5FD3CF16
:103BB0008F708093E90081E0089580E008958091FE
:103BC000160287FF11C08091E80082FD05C0809138
:103BD00015028111F8CF11C08091E8008B770BC0DE
:103BE00080911502882349F08091E80080FFF8CF8A
:103BF0008091E8008E778093E80008952091E4009A
:103C00003091E50095E64091EC00842F817040FFF3
:103C100022C08091E80080FD1CC08091150288239D
:103C200091F0853091F08091EB0085FD10C04091BE
:103C3000E4005091E5004217530729F39A0191508F
:103C400011F784E0089582E0089583E0089581E00B
:103C5000089580E008954091E80042FFDECF089586
:103C60000E949E1E0E94A61EE0EEF0E08081816010
:103C70008083E8EDF0E080818F77808319BCA7ED29
:103C8000B0E08C918E7F8C9380818F7E80831092A8
:103C9000140208950F931F93CF93DF930E949E1EEB
:103CA0000E94A61EC8EDD0E088818F778883888126
:103CB0008068888388818F7D888319BC1092150263
:103CC00010921102109213021092120200EE10E0F4
:103CD000F80180818B7F808388818160888342E0C6
:103CE00060E080E00E94AA1DE1EEF0E080818E7F1E
:103CF0008083E2EEF0E08081816080838081886053
:103D00008083F80180818E7F8083888180618883B1
:103D1000DF91CF911F910F910895E8EDF0E0808140
:103D20008F7E8083E7EDF0E080818160808384E096
:103D300082BF81E0809314020C944A1EE8EDF0E00B
:103D400080818E7F80831092E20008951092DA00C5
:103D50001092E10008951F920F920FB60F92112456
:103D60002F933F934F935F936F937F938F939F9383
:103D7000AF93BF93EF93FF938091E10082FF0BC05D
:103D80008091E20082FF07C08091E1008B7F8093E9
:103D9000E1000E941B218091DA0080FF1FC080910A
:103DA000D80080FF1BC08091DA008E7F8093DA00FC
:103DB0008091D90080FF0DC080E189BD82E189BD7D
:103DC00009B400FEFDCF81E0809315020E94F71A2E
:103DD00005C019BC109215020E94051B8091E100DC
:103DE00080FF19C08091E20080FF15C08091E20041
:103DF0008E7F8093E2008091E20080618093E200F8
:103E00008091D80080628093D80019BC85E08093AF
:103E100015020E94091B8091E10084FF30C080914F
:103E2000E20084FF2CC080E189BD82E189BD09B434
:103E300000FEFDCF8091D8008F7D8093D8008091C7
:103E4000E1008F7E8093E1008091E2008F7E80937D
:103E5000E2008091E20081608093E2008091110293
:103E6000882311F084E007C08091E30087FD02C041
:103E700081E001C083E0809315020E940A1B8091BB
:103E8000E10083FF29C08091E20083FF25C080917B
:103E9000E100877F8093E10082E080931502109219
:103EA00011028091E1008E7F8093E1008091E20019
:103EB0008E7F8093E2008091E20080618093E20037
:103EC00042E060E080E00E94AA1D8091F0008860DE
:103ED0008093F0000E94081BFF91EF91BF91AF917A
:103EE0009F918F917F916F915F914F913F912F9112
:103EF0000F900FBE0F901F9018951F920F920FB644
:103F00000F9211242F933F934F935F936F937F935F
:103F10008F939F93AF93BF93CF93DF93EF93FF93D1
:103F2000C091E900CF708091EC00D82FD17080FD56
:103F3000D0E81092E9008091F000877F8093F00034
:103F400078940E94C11F1092E9008091F00088606F
:103F50008093F000CD2BCF70C093E900FF91EF91DB
:103F6000DF91CF91BF91AF919F918F917F916F9191
:103F70005F914F913F912F910F900FBE0F901F9027
:103F800018951F93CF93DF93CDB7DEB7AA970FB6DF
:103F9000F894DEBF0FBECDBFE6E1F2E088E08E0F01
:103FA0009091F10091938E13FBCF0E94201B809182
:103FB000E80083FF28C18091160290911702492FD3
:103FC00050E04A30510508F01EC1FA01E556FF4F96
:103FD0000C949121803821F0823809F014C108C076
:103FE0008091120290911302992389F082600FC090
:103FF00080911A028F70873008F005C18093E90024
:104000008091EB0085FB882780F91092E900909160
:10401000E800977F9093E8008093F1001092F10000
:10402000D0C0282F2D7F09F0EEC0882319F08230F0
:1040300061F0E9C080911802813009F0E4C093304A
:1040400009F080E0809313022EC080911802811144
:104050002AC080911A028F702FEF280F263008F0A7
:10406000D2C08093E9002091EB0020FF1CC0933068
:1040700021F48091EB00806214C09091EB0090617C
:104080009093EB0021E030E0A90102C0440F551FDE
:104090008A95E2F74093EA001092EA008091EB00E3
:1040A00088608093EB001092E9008091E800877FA0
:1040B0008093E8000E94DF1DA6C08111A4C010916A
:1040C00018021F778091E3008078812B8093E300B2
:1040D0008091E800877F8093E8000E94DF1D809137
:1040E000E80080FFFCCF8091E30080688093E300CC
:1040F000111102C082E001C083E08093150283C0E9
:104100008058823008F07FC0809118029091190287
:104110008C3D53E0950779F583E08A838AE28983B1
:104120004FB7F894DE01139620E03EE051E2E32F12
:10413000F0E050935700E49120FF03C0E295EF7048
:104140003F5FEF708E2F90E0EA3010F0C79601C00D
:10415000C0968D939D932F5F243149F74FBF809177
:10416000E800877F8093E8006AE270E0CE01019664
:104170000E94E61C15C060911A0270911B02AE01EC
:104180004F5F5F4F0E940D1CBC01892BE1F19091A4
:10419000E800977F9093E80089819A810E94491DE9
:1041A0008091E8008B778093E8002DC0803859F526
:1041B0008091E800877F8093E800809111028093CE
:1041C000F1008091E8008E7773CF81111CC090912F
:1041D00018029230C0F48091E800877F8093E80055
:1041E000909311020E94DF1D80911102811106C07F
:1041F0008091E30087FD02C081E001C084E08093EC
:1042000015020E940C1B8091E80083FF0AC0809178
:10421000E800877F8093E8008091EB0080628093C4
:10422000EB00AA960FB6F894DEBF0FBECDBFDF91AC
:10423000CF911F9108950895CF93809115028823FF
:10424000A1F0C091E900CF709091EC00892F8170AE
:1042500090FD80E8C82B1092E9008091E80083FD72
:104260000E94C11FCF70C093E900CF910895DB0178
:104270008F939F930E94A621BF91AF91A29F800D23
:10428000911DA39F900DB29F900D11240895AA1B1C
:10429000BB1B51E107C0AA1FBB1FA617B70710F031
:1042A000A61BB70B881F991F5A95A9F78095909563
:1042B000BC01CD01089597FB072E16F4009407D09A
:1042C00077FD09D00E94472107FC05D03EF4909568
:1042D00081959F4F0895709561957F4F0895A1E254
:1042E0001A2EAA1BBB1BFD010DC0AA1FBB1FEE1F70
:1042F000FF1FA217B307E407F50720F0A21BB30BBB
:10430000E40BF50B661F771F881F991F1A9469F736
:1043100060957095809590959B01AC01BD01CF0192
:104320000895EE0FFF1F0590F491E02D0994A29FD0
:10433000B001B39FC001A39F700D811D1124911D79
:10434000B29F700D811D1124911D08950E94972127
:10435000A59F900DB49F900DA49F800D911D1124D9
:104360000895F999FECF92BD81BDF89A992780B53D
:104370000895A8E1B0E042E050E00C94D921262F46
:10438000F999FECF92BD81BDF89A019700B402164B
:1043900039F01FBA20BD0FB6F894FA9AF99A0FBEF9
:1043A00008950196272F0E94C0210C94BF21DC01A3
:1043B000CB01FC01F999FECF06C0F2BDE1BDF89A30
:1043C000319600B40D9241505040B8F70895F894DA
:0243D000FFCF1D
:1043D200B7012808140A321E051AA31A781A421ABB
:1043E200081A0134C697669490F731333236404D3D
:1043F2003639EF03A2036C033303C602DF02F8026D
:024402001103A4
:00000001FF
